:020000040800F2
:1000000000040020970E0008A50E000859040008FF
:10001000A90E0008AB0E0008AD0E0008000000009D
:10002000000000000000000000000000AF0E00080B
:10003000B10E000800000000B30E0008BF0C00085D
:10004000B70E0008B70E0008B70E0008B70E00087C
:10005000B70E0008B70E0008DD520008B70E000802
:10006000B70E0008B70E0008B70E0008B70E00085C
:1000700013420008B70E00081D420008B70E000822
:10008000B70E00081F420008B70E0008B70E0008A0
:10009000B70E0008B70E0008B70E0008115300088D
:1000A000B70E0008B70E0008B70E0008B70E00081C
:1000B000B70E0008B70E0008B70E0008B70E00080C
:1000C000B70E0008B70E0008B70E0008B70E0008FC
:1000D000B70E0008F5410008FF410008094200087A
:1000E000B70E0008B70E0008B70E0008B70E0008DC
:1000F000B70E0008B70E0008B70E0008B70E0008CC
:10010000B70E0008B70E000845530008B70E0008E8
:10011000B70E0008B70E000879530008AB5300086B
:10012000B70E0008B70E0008B70E0008B70E00089B
:1001300000F002F800F090F80AA090E8000C824469
:100140008344AAF10107DA4501D100F085F8AFF246
:10015000090EBAE80F0013F0010F18BFFB1A43F0A5
:1001600001031847A0A20000C0A20000103A24BF5B
:1001700078C878C1FAD8520724BF30C830C144BF0C
:1001800004680C607047000000230024002500264E
:10019000103A28BF78C1FBD8520728BF30C148BFEA
:1001A0000B6070476E2906F04F81702906F091822E
:1001B000662909F0DC84652909F0D984672909F0EA
:1001C000D6846129AFF3008003681B0A28BF41F081
:1001D0008001692906F0FC80642906F0F980752900
:1001E00006F0F6806F2906F01F82782906F05D82FE
:1001F000E92906F0B981E42906F0B681F52906F06F
:10020000B381EF2906F01C82F82906F05C820368AE
:10021000DB0928BF41F08001632906F0E2857329DC
:1002200006F0E785E32906F0F285F32906F0F78565
:10023000002070471FB506F049FE04000020002191
:1002400008F0CAFA401C60600020002108F0AEFAF5
:10025000E0601FBD10B510BD06F00AFE1146FFF7A5
:10026000E9FF00F0D0F806F0E3FE03B4FFF7F2FF79
:1002700003BC06F023FF000070B586B001A801F0B2
:1002800028FC4FF47A710298B0FBF1F4E40821469F
:10029000B1F1807F00D31DE021F07F40401E4FF080
:1002A000E022506150170F22002807DA13071E0EB4
:1002B0000B4B00F00F052D1F5E5503E013071D0EBD
:1002C000084B1D5400BF00204FF0E0229061072032
:1002D000106100BF6FF0040000F04FFE06B070BD6B
:1002E00018ED00E000E400E07047704710B500F042
:1002F0004DF900F06FFB10BD10B500F08DF910BD89
:1003000010B500F07FF900F057F900F0FAFB10BDCE
:1003100010B500F0CEF910BD10B500F056FA10BDC2
:1003200010B501F0D5FA4FF4803001F0F1FA01F088
:100330002EFB0446012C24D1102000F051FE022097
:1003400000F03AFE002001F068FB002001F077FB8E
:10035000A00201F06BFB4FF4E011200401F040FB20
:10036000012001F049FB00BF392001F0F4FA002818
:10037000FAD0022001F043FB00BF01F049FB08283E
:10038000FBD1012001F098FB00BF612001F0E3FAEE
:100390000028FAD00121042001F008FC01210820E6
:1003A00001F004FC0121102001F000FC01212020BB
:1003B00001F0FCFB0121402001F0F8FB01210802C3
:1003C00001F0F4FB0121084601F0F0FB0121084691
:1003D00001F0F9FB0121022001F0F5FB01210820C9
:1003E00001F0F1FB0121880301F0E0FB0121480449
:1003F00001F0E9FB0121880401F0E5FB0121084639
:1004000001F0C7FB10BD90B0FFF78AFF00F0BFFA04
:10041000AFF22B100690AFF22D100A90AFF233100E
:100420000B90AFF22B100C90AFF22B100D90AFF29F
:100430001F100E90AFF21F100F9018220AA96846E5
:1004400005F024FF06A80FC800F077F800F090F838
:1004500001E000F003F8FCE77047000010B54848E1
:100460000078012842D147490868804744484088BD
:100470000A2805DB00204249488042490869804734
:100480003F4880881E2805DB00203D4988803D4983
:10049000486980473A48C088322805DB002038493F
:1004A000C88038498869804735480089642805DB59
:1004B0000020334908813349C86980473048408962
:1004C000C82805DB00202E4948812E49086A80474C
:1004D0002B488089B0F5FA7F05DB00202849888108
:1004E0002849486A804700202549087010BD2448E3
:1004F0004088401C2249488008468088401C8880EB
:100500000846C088401CC88008460089401C0881F5
:1005100008464089401C488108468089401C8881E3
:1005200008460078012804D108464078401C4870ED
:1005300002E001201249087070470FB410B512484C
:10054000007890B90F4902980860069808610798EA
:100550004861089888610998C8610A9808620B98F0
:100560004862AFF2750000F031FB10BC5DF814FB7F
:1005700010B500F031FB01200349087010BD0000E8
:1005800050000020600000200000002010B58AB05C
:1005900000208DF8260001A91D4805F097FD0128CF
:1005A00008D19DF82600012804D1002401A9204685
:1005B00000F0CAFB0AB010BD10B58AB0154890F81B
:1005C0002C00012810D10021124880F82C100120A5
:1005D0008DF804000F48408DADF80600022401A9F3
:1005E000204600F0B1FB0BE001208DF8040042F63C
:1005F000F450ADF80600022401A9204600F0A4FB47
:100600000AB010BD10B5034804F0DCFD10BD0000B9
:1006100070120020E008002010B58AB0012401A962
:10062000204600F0D7FB012841D19DF804000128A5
:100630003DD19DF80500012805D1714802A90EC9D8
:1006400004F012F82BE09DF8050002280AD10021E1
:100650006C48029A05F0C3FA01216A48039A05F032
:10066000BEFA1CE09DF8050003280AD10221654866
:10067000029A05F0B4FA03216248039A05F0AFFA32
:100680000DE09DF80500042809D104215D48029A77
:1006900005F0A5FA05215B48039A05F0A0FA0020B1
:1006A0008DF80400012401A9204600F04DFB0AB09A
:1006B00010BD2DE9F04F89B04FF00009CA46012462
:1006C0006946204600F086FB012849D14E4804F0D7
:1006D000F9FE4EA3002205214B4805F07BF94DA3FE
:1006E0000E220521484805F075F94BA31E2205216D
:1006F000454805F06FF949A32E220521424805F02F
:1007000069F99DF8013000223C213F4805F0F2F8DC
:100710004FF07E51019808F0C9FE07464FF089411D
:1007200009F0A8F8064609F025F885B22B460E22F6
:100730003C21354805F0DEF84FF07E51029808F074
:10074000B5FE07464FF0894109F094F8064609F0D6
:1007500011F885B22B461E223C212B4805F0CAF821
:1007600002246946204600F035FB01282AD1019871
:1007700009F000F805462B462E223C21224805F0C0
:10078000B9F828A32E2254211F4805F023F9019817
:1007900008F0F0FF834609F025F88046019909F03A
:1007A00066F90746204909F065F8064608F0E2FFB9
:1007B00005462B462E225C21134805F09BF8124873
:1007C00005F023F909B0BDE8F08FF0B589B0012438
:1007D0006946204600F0FEFA01280FD1134803991C
:1007E00009F048F80746104908F060FE064608F090
:1007F000C1FF85B229460E4802F077FE09B0F0BD70
:10080000C8040020C8110020700900206D6F6465C5
:10081000000000006368300063683100646973742D
:10082000000000002E0000000000C84200007A44D2
:10083000E800002008B5684604F0D6FD01208DF8D8
:10084000000003208DF80100A020ADF802006946E9
:10085000584804F0D1FD08BD0EB5684602F0F4FC1E
:1008600001208DF8000004208DF808008DF80900A3
:100870006946514802F0A4FD0EBD08B50120009064
:1008800069464E4804F09FFE08BD00B585B0684635
:1008900005F0EAF801208DF800008DF801004FF412
:1008A000E130019003208DF810008DF811008DF8D3
:1008B00012008DF813006946414805F00AF905B0A9
:1008C00000BD0EB5684604F0A9FB01208DF80000BC
:1008D0008DF801006320ADF806004720ADF8040054
:1008E00000208DF808008DF8090001208DF8020025
:1008F0008DF803006946334804F0EFFB0EBD00B5E8
:100900008DB0684603F092FC01208DF8000042F2A1
:100910000F70ADF804000020ADF8020002900390C3
:10092000294804906946294803F0A2FF0DB000BD94
:1009300000B589B0684605F089FB04208DF80100F8
:1009400001208DF8040001218DF8051000218DF89B
:10095000061004218DF8071002218DF812108DF871
:1009600013108DF810108DF811104FF4E13105912E
:100970000021ADF81810ADF81E10ADF81C10ADF840
:100980001A106946124805F072FB09B000BD10B597
:10099000FFF772FC00F0B0F9FFF7CAFFFFF7AFFFF7
:1009A000FFF78FFFFFF758FFFFF767FFFFF76DFFB8
:1009B00010BD00004A000020E8000020700900205F
:1009C000C8110020E00800206666663FC8040020C9
:1009D000701200202DE9F0418CB000250026002483
:1009E00003A9204600F0F6F901286ED19DF82E00EB
:1009F00080B96E480078401C6C4908700846007841
:100A0000642803DB4FF480652E4625E04FF48065B3
:100A10002E4621E09DF82E0001281DD100206349BB
:100A200008708DF82E00002403A9204600F08CF9F0
:100A3000BDF81050BDF80E60BDF81400ADF804000C
:100A4000BDF81600ADF80600BDF81800ADF80800B6
:100A5000BDF81A00ADF80A00012403A9204600F0F1
:100A6000B9F901284AD18DF80C00284608F0BAFEE1
:100A700080464FF0894108F087FD07464FF07E51D0
:100A800009F000F80490304608F0ACFE80464FF0C4
:100A9000894108F079FD07464FF07E5108F0F2FFDA
:100AA0000590BDF8040040F2FF71884203D1012097
:100AB0008DF80D001DE0BDF8060040F2FF71884280
:100AC00004D102208DF80D0013E017E0BDF80800F6
:100AD00040F2FF71884203D103208DF80D0008E039
:100AE000BDF80A0040F2FF71884202D104208DF85F
:100AF0000D00012403A9204600F026F90CB0BDE842
:100B0000F0812DE9F04F89B04FF0000B4FF0020A51
:100B10006946504600F05EF9012835D19DF8000085
:100B2000012831D100208DF80000BDF8020008F046
:100B300031F9804600221E4B08F07CF9064600225F
:100B40001C4B07F04DFF044607F05CFE01901A496C
:100B5000019808F05BFF02D2DFF860B00EE01849A0
:100B6000019808F053FF02D2DFF858B006E01449AC
:100B7000019808F04BFE01D8DFF84CB04FF0020AA4
:100B80006946504600F0E0F84FF0010A69465046C9
:100B900000F020F9012806D1CDF80CB000BF69465D
:100BA000504600F0D1F809B0BDE8F08F01000020F8
:100BB0000000414000409F400000C842CDCC4C3F67
:100BC0000000F0419A99193F000080BF454909781B
:100BD00009B94549086070470120424908707047CB
:100BE000424A11684FF0E02252694FF0E0239B69BE
:100BF000D21A4FF47A735A434FF0E0235B69B2FB89
:100C0000F3F201EB4103C3EBC11302EBC3007047E6
:100C100030B50446FFF7E4FF054600BFFFF7E0FFED
:100C2000401BA042FAD330BD10B5044603E04FF498
:100C30007A70FFF7EDFF2000A4F10104F7D110BD99
:100C400070B5044604EB4400294951F8200004EB38
:100C50004401274A02EB81014860FFF7C1FF0646C5
:100C600008F0C0FD0546234908F08EFC04EB440162
:100C70001F4A42F8210004EB44021D4B03EB8202A1
:100C8000516804EB440253F8220008F0FBFE04EB29
:100C90004401174A02EB8101886004EB44001146CD
:100CA00001EB8000806870BD10B5002404E0204690
:100CB000FFF7C6FF601CC4B2032CF8DB10BD10B5F3
:100CC0000A480068401C094908600648007800B9D5
:100CD00010BD0548006810B103480068804700BF98
:100CE000F6E70000040000200C00002008000020AF
:100CF00088000020002474490021644A82F82410EE
:100D00000122624981F8252000228A62CA624FF0DE
:100D10007E520A6300215D4A82F8221082F8201078
:100D2000002006E04FF48061584A22F81010411C60
:100D3000C8B21028F6DB0021544A82F83410002291
:100D40005249CA868A6370472DE9F04106460C462F
:100D500014B90020BDE8F081012700F08FF826B11A
:100D6000012E17D0022E2ED123E094F822004749FD
:100D700081F8220094F8200081F82000002506E088
:100D800034F81500414921F81500681CC5B2102D32
:100D9000F6DB1AE020783D4981F8240061783B4871
:100DA00080F8251061688162A168C162E168016311
:100DB0000BE02078354981F8340061883348C186DA
:100DC0006168816301E0002700BF00BF00F050F8B8
:100DD0003846BFE72DE9F04106460C4614B900201D
:100DE000BDE8F081012700F049F826B1012E1CD0A2
:100DF000022E36D12AE0254890F8220084F82200FD
:100E0000224890F8200084F82000002506E01F48C2
:100E100030F8150024F81500681CC5B2102DF6DB5B
:100E200000201A4981F822001DE0184890F824009B
:100E30002070164890F8250060701448806A606041
:100E40001248C16AA160016BE1600CE00F4890F8A4
:100E5000340020700D48C08E60800C48806B60604C
:100E600001E0002700BF00BF00F002F83846B7E7F6
:100E70000749086880F3108800BF704700BFEFF390
:100E800010800349086072B670470000AC00002073
:100E90001000002070470B4880470B4981F30888F9
:100EA0000A480047FEE7FEE7FEE7FEE7FEE7FEE74B
:100EB000FEE7FEE7FEE7FEE705480649044A064B63
:100EC00070470000950E0008181C00203101000832
:100ED00018140020181C0020181400203149014368
:100EE000314A1160704770B5002100230F22C47889
:100EF00004B32D4C246804F4E064C4F5E064210AD2
:100F0000C1F10403CA40447804FA03F18478144020
:100F100021430901254C0678A155047804F01F05EA
:100F20000124AC4005786D11AD0005F1E025C5F850
:100F3000004109E0047804F01F050124AC401C4D79
:100F40000678761145F8264070BD1A4A0A400243D9
:100F5000154B1B1F1A60704739B1134A121D1268D6
:100F60000243114B1B1D1A6006E00F4A121D126846
:100F700082430D4B1B1D1A607047042808D14FF0A7
:100F8000E021096941F004014FF0E022116107E01E
:100F90004FF0E021096921F004014FF0E0221161D6
:100FA000704700000000FA050CED00E000E400E0EE
:100FB00080E100E080FFFF1F01460020FE4A10682C
:100FC00000F03800084310607047FB49096821F0C1
:100FD0000801F94A11601146096801431160704720
:100FE000F549096821F01001F34A116011460968BA
:100FF000014311607047F148EF494860F04848608C
:101000007047EE48EC494860ED4848607047EA4850
:10101000006940F08000E84908617047E6480069CF
:1010200040F08000E449086170470420E249C96843
:1010300001F0010109B101200EE0DF49C96801F0AA
:10104000040109B1022007E0DB49C96801F0100181
:1010500009B1032000E00420704700B502460423D4
:10106000FFF7E3FF034603E0FFF7DFFF0346521EEF
:10107000012B01D1002AF7D102B90523184600BD82
:1010800030B5044604254FF43020FFF7E6FF05464F
:10109000042D17D1C848006940F00200C649086114
:1010A00008464461006940F0400008614FF4302078
:1010B000FFF7D3FF0546C048006941F6FD710840BF
:1010C000BD490861284630BD10B504244FF43020D6
:1010D000FFF7C3FF0446042C16D1B748006940F05F
:1010E0000400B54908610846006940F04000086105
:1010F0004FF43020FFF7B1FF0446AF48006941F6D6
:10110000FB710840AC490861204610BD00B502469D
:101110000423FFF78AFF034603E0FFF786FF034639
:10112000521E012B01D1002AF7D102B9052318461E
:1011300000BD10B504244FF43020FFF7E7FF04464C
:10114000042C16D19C48006940F004009A490861BB
:101150000846006940F0400008614FF43020FFF776
:10116000D5FF04469448006941F6FB710840924956
:101170000861204610BD00208F49C96901F00201B5
:1011800009B1012000E00020704730B5A5250424F6
:10119000FFF7F1FF00B100254FF43020FFF75DFFAE
:1011A0000446042C3AD18548834988608448886085
:1011B0000846006940F0200008610846006940F0D8
:1011C000400008614FF43020FFF747FF0446042C2D
:1011D0001BD17948006941F6DF7108407649086102
:1011E0000846006940F01000086176480580E0027A
:1011F000FFF733FF0446052C10D06F48006941F615
:10120000EF7108406C49086108E0052C06D06A4877
:10121000006941F6EF71084067490861204630BD1A
:1012200078B506460C46042500200090E802FFF73A
:1012300014FF0546042D24D15F48006940F00100E9
:101240005D4908613480E802FFF707FF0546042D79
:1012500010D1B01C0090200C00990880E802FFF724
:10126000FCFE05465448006941F6FE7108405249AB
:10127000086106E05048006941F6FE7108404E4999
:101280000861284678BD70B504460D460426F00274
:10129000FFF7E3FE0646042E11D14748006940F0EF
:1012A0000100454908612580F002FFF7D6FE064699
:1012B0004148006941F6FE7108403F4908613046E7
:1012C00070BD70B505460E460424E002FFF7C5FE6A
:1012D0000446042C17D1394837498860384888605B
:1012E0000846006940F0100008612E80E002FFF718
:1012F000B4FE0446052C06D02F48006941F6EF7174
:1013000008402D490861204670BD2DE9F043044690
:101310004FF6FF763746B046B1460425E443E6B2C1
:10132000C4F30727C4F307484FEA1469E802FFF73C
:1013300094FE0546042D49D120481F498860204865
:1013400088600846006940F010000861FF2E06D052
:101350001C4808300680E802FFF77FFE0546042D92
:1013600008D1FF2F06D017480A300780E802FFF7A0
:1013700074FE0546042D0AD1B8F1FF0F07D01148BD
:101380000C30A0F80080E802FFF767FE0546042D48
:101390000AD1B9F1FF0F07D00A480E30A0F800902B
:1013A000E802FFF75AFE0546052D0FD002480069F6
:1013B00041F6EF71084007E0002002402301674535
:1013C000AB89EFCD00F8FF1F664908612846BDE8EC
:1013D000F08330B5054604244FF43020FFF73DFE7E
:1013E0000446042C41D160485E4988605F488860AB
:1013F0000846006940F0200008610846006940F096
:10140000400008614FF43020FFF727FE0446042C0B
:1014100022D15448006941F6DF7108405149086102
:101420000846006940F0100008611DB100205049D5
:10143000088002E0A5204E4908804FF43020FFF7D5
:101440000CFE0446052C10D04648006941F6EF71A9
:1014500008404449086108E0052C06D0414800696D
:1014600041F6DF7108403F490861204630BDF0B5C4
:1014700005460E46174604243B483A4988603B48D7
:101480008860E002FFF7E9FD0446042C19D13548D5
:10149000006940F010003349086147F0F80030431C
:1014A00028433349891C0880E002FFF7D6FD044633
:1014B000052C06D02B48006941F6EF7108402949F8
:1014C00008612046F0BD2748C0698008704725485C
:1014D000006A704700202349096801F0200109B122
:1014E000012000E00020704729B11E4A1269024322
:1014F0001C4B1A6104E01B4A12698243194B1A61A2
:10150000704701460020012908D1164AD26902F02D
:1015100001020AB1012008E0002006E0114AD26869
:101520000A400AB1012000E0002070470D49C86060
:10153000704704200B49C96801F0010109B101207D
:101540000EE00849C96801F0040109B1022007E072
:101550000449C96801F0100109B1032000E004202A
:10156000704700000020024023016745AB89EFCDA2
:1015700000F8FF1F10B50446CC48844208D1012171
:10158000042000F02DFB0021042000F029FB46E0A0
:10159000C748844208D10121082000F021FB002126
:1015A000082000F01DFB3AE0C248844208D1012126
:1015B000102000F015FB0021102000F011FB2EE0A0
:1015C000BD48844208D10121202000F009FB002100
:1015D000202000F005FB22E0B848844208D1012118
:1015E000402000F0FDFA0021402000F0F9FA16E05A
:1015F000B348844208D10121802000F0F1FA002193
:10160000802000F0EDFA0AE0AE48844207D10121C3
:10161000801500F0E5FA0021A01500F0E1FA10BDF8
:1016200010B50121084600F0DBFA0021012000F08E
:10163000D7FA10BD2DE9F041024600250026002012
:1016400000230024002791F803C00CF00F0591F847
:1016500003C00CF0100CBCF1000F03D091F802C0D5
:101660004CEA050591F800C0BCF1000F31D01468B8
:1016700000202BE04FF0010C0CFA00F3B1F800C091
:101680000CEA03069E4220D183004FF00F0C0CFAA7
:1016900003F7BC4305FA03FC4CEA040491F803C0C9
:1016A000BCF1280F06D14FF0010C0CFA00FCC2F877
:1016B00014C00AE091F803C0BCF1480F05D14FF007
:1016C000010C0CFA00FCC2F810C0401C0828D1D351
:1016D0001460B1F800C0BCF1FF0F34DD5468002085
:1016E0002EE000F1080C4FF0010808FA0CF3B1F8F5
:1016F00000C00CEA03069E4221D183004FF00F0C7C
:101700000CFA03F7BC4305FA03FC4CEA040491F815
:1017100003C0BCF1280F05D100F1080C08FA0CF841
:10172000C2F8148091F803C0BCF1480F07D100F152
:10173000080C4FF0010808FA0CF8C2F81080401CA1
:101740000828CED35460BDE8F0814FF6FF710180C8
:10175000022181700421C170704702460020936805
:101760000B400BB1012000E0002070470146886863
:1017700080B2704702460020D3680B400BB10120B5
:1017800000E0002070470146C86880B270470161E0
:101790007047416170470AB1016100E041617047E3
:1017A000C16070474FF480320A4382618161826177
:1017B00082698269704702460020434B18684FF6E1
:1017C0008073184040EA021008433F4B186070478E
:1017D0003E49C8617047F0B50A4600230024002145
:1017E000002500F00046B6F1004F02D1364EF169F7
:1017F00001E0354E7168C0F3034583B200F4401632
:10180000B6F5401F08D121F070612F4E766826F0A2
:1018100070662D4F7E6012E000F48016B6F5801FD2
:1018200006D1032606FA05F4A14341F0706106E0F3
:10183000460D360103FA06F6B14341F0706122B15C
:10184000460D360103FA06F6314300F00046B6F1C4
:10185000004F02D11C4EF16101E01B4E7160F0BDE2
:1018600030B500228B071C0F0F2303FA04F2164B2E
:1018700008338C1053F824309343134C08348D10E4
:1018800044F8253023468C1053F824308C07240F5D
:1018900000FA04F423430C4C08348D1044F825302E
:1018A00030BD0A49DC310860704700000008014083
:1018B000000C0140001001400014014000180140DC
:1018C000001C0140002001400000014000002042B7
:1018D000DF48006840F00100DD49086008464068C4
:1018E000DC490840DA49486008460068DA4908409F
:1018F000D74908600846006820F480200860084640
:10190000406820F4FE0048604FF41F008860704774
:10191000CF49096821F48031CD4A11601146096828
:1019200021F480211160B0F5803F03D0B0F5802F05
:101930000ED106E0C649096841F48031C44A1160FD
:1019400007E0C349096841F4A021C14A116000E0E1
:1019500000BF00BF704710B50146002200230020E1
:101960004A11012A02D1BA4C236806E0022A02D1A8
:10197000B74C236A01E0B64C636A01F01F020124F0
:1019800094401C400CB1012000E0002010BD38B58F
:10199000002000900024002500BF3120FFF7DBFF6E
:1019A00005460098401C00900098B0F5A06F01D04B
:1019B000002DF2D03120FFF7CEFF08B1012400E066
:1019C0000024204638BD01460020A14A106820F0BE
:1019D000F80040EAC10010607047A04908607047F5
:1019E000024600209A4B586820F47C1042EA01031A
:1019F0001843974B586070479849086670470146EE
:101A00000020934A506820F003000843506070475C
:101A10008F48406800F00C007047014600208C4A57
:101A2000506820F0F00008435060704701460020E5
:101A3000874A506820F4E0600843506070470146D0
:101A40000020834A506820F4605040EAC100506092
:101A5000704729B17E4A527A02437D4B5A7204E0A4
:101A60007B4A527A82437A4B5A7270477B49D8310B
:101A70000860704701460020754A506820F44040D5
:101A80000843506070470021714A20321170704A3B
:101A900082F82010012802D004280AD104E0012194
:101AA0006B4A2032117005E00521694A203211701D
:101AB00000E000BF00BF7047694908607047644993
:101AC000096A0143624A11627047654944390860F6
:101AD000704730B500210022002400235C4D6D6862
:101AE00005F00C0121B1042905D0082923D105E016
:101AF0005C4D056022E05B4D05601FE0544D6D6854
:101B000005F47012524D6D6805F48034022505EB22
:101B100092421CB9544D554305600BE04C4D6D6825
:101B200005F400351DB1504D5543056002E04D4DA3
:101B30005543056002E04B4D056000BF00BF444DBA
:101B40006D6805F0F0010909484D6B5C0568DD40E2
:101B500045603F4D6D6805F4E061090A434D6B5CDB
:101B60004568DD4085603A4D6D6805F46051C90AED
:101B70003E4D6B5C4568DD40C560354D6D6805F4D4
:101B80004041890B3A4D6B5CC568B5FBF3F50561C7
:101B900030BD29B12E4A526902432D4B5A6104E0EF
:101BA0002B4A526982432A4B5A61704729B1284A0D
:101BB00092690243264B9A6104E0254A9269824366
:101BC000234B9A61704729B1214AD2690243204BC5
:101BD000DA6104E01E4AD26982431D4BDA61704724
:101BE00029B11B4AD2680243194BDA6004E0184A53
:101BF000D2688243164BDA60704729B1144A1269E1
:101C00000243134B1A6104E0114A12698243104BDC
:101C10001A61704712494039086070470F49C8641B
:101C200070470B49C87170470948406A40F080709E
:101C300007494862704701460020054A92680A40F9
:101C40000AB1012000E00020704701498872704706
:101C5000001002400000FFF8FFFFF6FE00004242C5
:101C60008004424200127A0000093D001400002066
:101C7000240000200E49086070470D4948607047F5
:101C80000B49886070474AF6AA20094908607047E6
:101C90004CF6CC4006490860704701460020044AD3
:101CA000D2680A400AB1012000E00020704700001D
:101CB0000030004010B50446FE48844208D101219E
:101CC000C014FFF78DFF0021E014FFF789FFC4E087
:101CD000B4F1804F08D101210846FFF78EFF0021A3
:101CE0000120FFF78AFFB8E0F348844208D10121C0
:101CF0000220FFF782FF00210220FFF77EFFACE009
:101D0000EE48844208D101210420FFF776FF00212C
:101D10000420FFF772FFA0E0E948844208D10121C6
:101D20000820FFF76AFF00210820FFF766FF94E014
:101D3000E448844208D101211020FFF75EFF002112
:101D40001020FFF75AFF88E0DF48844208D10121C4
:101D50002020FFF752FF00212020FFF74EFF7CE0FC
:101D6000DA48844208D101214014FFF739FF0021ED
:101D70006014FFF735FF70E0D548844209D1012196
:101D8000C804FFF72DFF00214FF40020FFF728FFC4
:101D900063E0D048844209D101210805FFF720FF04
:101DA00000214FF48010FFF71BFF56E0CA48844221
:101DB00009D101214805FFF713FF00214FF400105E
:101DC000FFF70EFF49E0C548844208D101214020B9
:101DD000FFF713FF00214020FFF70FFF3DE0C04851
:101DE000844208D101218020FFF707FF00218020D5
:101DF000FFF703FF31E0BB48844208D10121801581
:101E0000FFF7FBFE0021A015FFF7F7FE25E0B6481F
:101E1000844209D101210804FFF7E2FE00214FF4BA
:101E20008030FFF7DDFE18E0B048844209D101217F
:101E30004804FFF7D5FE00214FF40030FFF7D0FE35
:101E40000BE0AB48844208D101218804FFF7C8FEAB
:101E500000214FF48020FFF7C3FE10BD002202884E
:101E6000944B98420ED0994B98420BD0B0F1804FD2
:101E700008D0914B984205D0904B984202D0904B9D
:101E8000984204D14FF68F731A404B881A438D4BFA
:101E9000984207D08C4B984204D04FF6FF431A402B
:101EA000CB881A4302808B8883850B880385814BFE
:101EB00098420BD0854B984208D08B4B984205D066
:101EC0008A4B984202D08A4B984201D10B7A038602
:101ED00001238382704770B5002400220023058C03
:101EE0004FF6FE7635400584028C8388048B4FF6CE
:101EF0008F752C40B51E2C400D882C43751E2A4032
:101F00000D892A434D882A436A4DA8420BD06F4D54
:101F1000A84208D0744DA84205D0744DA84202D002
:101F2000734DA84213D14FF6F7752A404D892A43C5
:101F30004FF6FB752A408D882A434FF6FF652B40EC
:101F40004FF6FF552B408D892B43CD892B43838042
:101F50000483CD888586028470BD70B5002400227C
:101F60000023058C4FF6EF7635400584028C83887C
:101F7000048B48F6FF752C404FF6FF452C400D882A
:101F80004FF6FF7606EA05252C434FF6DF752A400B
:101F90000D8906EA05152A434D8806EA05152A43E8
:101FA000444DA84202D0494DA8421DD14FF67F753D
:101FB0002A404D894FF6FF7606EA05152A434FF66B
:101FC000BF752A408D8806EA05152A434FF6FF356E
:101FD0002B404FF2FF752B408D8906EA85052B4378
:101FE000CD8906EA85052B4383800483CD88058748
:101FF000028470BD70B5002400220023058C4FF6CA
:10200000FF6635400584028C8388848B4FF68F757C
:102010002C404FF6FC752C400D882C434FF6FF5595
:102020002A400D894FF6FF7606EA05252A434D889A
:1020300006EA05252A431F4DA84202D0234DA84297
:102040001DD14FF2FF752A404D894FF6FF7606EA03
:1020500005252A434FF6FF352A408D8806EA0525D7
:102060002A434EF6FF752B404DF6FF752B408D89A8
:1020700006EA05152B43CD8906EA05152B43838017
:102080008483CD888587028470BD70B500220023CB
:102090000024058C4EF6FF7635400584038C848839
:1020A000828B48F6FF752A404FF6FF452A400D887F
:1020B00020E00000002C0140000400400008004027
:1020C000000C0040001000400014004000340140AB
:1020D000004C0140005001400054014000180040F5
:1020E000001C00400020004000400140004401402E
:1020F000004801404FF6FF7606EA05252A434DF6D3
:10210000FF752B400D8906EA05352B434D8806EAFD
:1021100005352B43FA4DA84202D0FA4DA84208D10A
:102120004BF6FF752C408D894FF6FF7606EA851534
:102130002C4384808283CD88A0F84050038470BDF6
:10214000828B4FF2FF331A408283828B4FF6FF73EC
:1021500003EA01231A4382837047F0B50C46154603
:10216000002200210026078C4EF6FF7C07EA0C07B0
:102170000784828B018C4FF6FF7707EA043640F61E
:10218000FF473A404FF6FF7707EA05273A434FF6F5
:10219000FF7707EA03373A43D94FB8420ED0D94FF9
:1021A000B8420BD0B0F1804F08D0D74FB84205D01D
:1021B000D64FB84202D0D64FB84206D14DF6FF777F
:1021C000394046F48057394305E047F6FF57394018
:1021D00044F48057394382830184F0BD828B4FF6EB
:1021E000F3731A408283828B0A4382837047F0B56F
:1021F0000C461546002200210026078C4FF6FF6C86
:1022000007EA0C070784828B018C4FF6FF7707EAF9
:1022100004264FF60C773A404FF6FF7707EA03178C
:102220002F433A43B64FB8420ED0B64FB8420BD008
:10223000B0F1804F08D0B44FB84205D0B34FB84288
:1022400002D0B34FB84206D14FF6FF57394046F49B
:102250008077394305E04FF2FF57394044F48077E7
:10226000394382830184F0BD028B4FF2FF331A4061
:102270000283028B4FF6FF7303EA01231A430283A2
:102280007047F0B50C461546002200210026078C49
:102290004FF6EF7C07EA0C070784028B018C4FF6A0
:1022A000FF7707EA041640F6FF473A404FF6FF77FC
:1022B00007EA03373A434FF6FF7707EA05273A4321
:1022C0008F4FB8420ED08F4FB8420BD0B0F1804F35
:1022D00008D08D4FB84205D08C4FB84202D08C4FF9
:1022E000B84206D14FF6DF77394046F01007394340
:1022F00005E04FF65F77394044F010073943028319
:102300000184F0BD028B4FF6F3731A400283028BF7
:102310000A4302837047F0B50C461546002200219F
:10232000068C4FF6FE773E400684028B018C4FF6FA
:102330000C7632407E1C06EA03162E433243704E62
:10234000B0420ED06F4EB0420BD0B0F1804F08D0EB
:102350006D4EB04205D06D4EB04202D06C4EB042D0
:1023600006D14FF6FD76314044F00106314305E0D9
:102370004FF6F576314044F0010631430283018483
:10238000F0BD70B505460C465D4885420ED05D48EF
:1023900085420BD0B5F1804F08D05B48854205D00F
:1023A0005A48854202D05A48854200D100E000BF19
:1023B000208850B92389A28861882846FFF7ABFF9F
:1023C000E1882846FFF79EFF25E0208804280AD1EF
:1023D0002389A28861882846FFF753FFE1882846B1
:1023E000FFF742FF17E0208808280AD12389A28836
:1023F00061882846FFF7FBFEE1882846FFF7EEFEDE
:1024000009E02389A28861882846FFF7A6FEE188B3
:102410002846FFF795FE70BD2DE9F04105460C46B4
:1024200000260127608808B9022600E00026A0885F
:10243000012801D1022700E001272088A0B92389C3
:10244000A28861882846FFF766FFE1882846FFF7E3
:1024500059FF23893A4631462846FFF712FFE188A3
:102460002846FFF701FF13E02389A28861882846E8
:10247000FFF707FFE1882846FFF7F6FE23893A4673
:1024800031462846FFF747FFE1882846FFF73AFF25
:10249000BDE8F0810A884B881A438B881A43CB88A1
:1024A0001A430B891A434B891A438B891A43A0F8A4
:1024B000442070474FF6FF71818000210180C18068
:1024C0004180017270470021018041808180C1807C
:1024D000018141818181C18170470021018041805A
:1024E000012181800021C18001817047002101808C
:1024F00041808180C18001814181818170470000DC
:10250000002C01400034014000040040000800405D
:10251000000C004021B1028842F00102028004E078
:1025200002884FF6FE731A400280704731B1B0F84E
:10253000442042F40042A0F8442005E0B0F84420D2
:10254000C2F30E02A0F8442070471AB183890B43EE
:10255000838102E083898B43838170478182704746
:1025600041EA0203A0F8483070471AB183890B434F
:10257000838102E083898B438381704701894FF611
:10258000F8721140018170470A46002101894FF617
:102590008F73194011430181704730B504460D46D1
:1025A00029462046FFF7F0FF208940F007002081F0
:1025B00030BD2DE9F04104460D4616461F46602DFC
:1025C00006D13B46012231462046FFF75AFE05E080
:1025D0003B46012231462046FFF79DFE2946204614
:1025E000FFF7D2FF208940F007002081BDE8F0818D
:1025F00030B50C4600210189C9B24FF6FF7505EAD6
:102600000325154325432943018130BD2DE9F041C0
:1026100005460E4617469846002443463A4631463C
:102620002846FFF7E5FF2C894FF6F870044044F088
:1026300007044FF68F70044044F070042C81BDE80D
:10264000F081F0B504460D4616461F463B4632461D
:1026500029462046FFF7CCFF208940F480402081A6
:10266000F0BD0185828270470A46002101884FF63D
:102670008F731940114301807047F0B50C46154621
:102680001E460021002200230189028B038C4FF695
:10269000F877394021434FF6FC473A4040F20117A2
:1026A0003A434FF6DD773B404FF6FF7707EA0617D0
:1026B0002F433B43018102830384F0BD0A4600217E
:1026C000018B4FF68F7319401143018370470A46FF
:1026D0000021018B48F6FF7319404FF6FF7303EAA0
:1026E00002231943018370470A460021818B4FF66C
:1026F0008F7319401143818370470A460021818BF3
:1027000048F6FF7319404FF6FF7303EA022319439B
:102710008183704721B1028842F08002028004E088
:1027200002884FF67F731A400280704721B1828879
:1027300042F00402828004E082884FF6FB731A4064
:102740008280704721B1828842F00802828004E0D2
:1027500082884FF6F7731A408280704721B18288D1
:1027600042F00102828004E082884FF6FE731A4034
:10277000828070470A460021018B4FF6F77319409B
:102780001143018370470A460021018B4FF2FF730A
:1027900019404FF6FF7303EA022319430183704780
:1027A0000A460021818B4FF6F7731940114381834C
:1027B00070470A460021818B4FF2FF7319404FF694
:1027C000FF7303EA02231943818370470A460021FD
:1027D000018B4FF6FB7319401143018370470A4682
:1027E0000021018B4FF6FF3319404FF6FF7303EAC8
:1027F00002231943018370470A460021818B4FF65B
:10280000FB7319401143818370470A460021818B75
:102810004FF6FF3319404FF6FF7303EA02231943C3
:10282000818370470A460021018B4FF67F73194060
:102830001143018370470A460021018BC1F30E0149
:102840004FF6FF7303EA02231943018370470A46D8
:102850000021818B4FF67F731940114381837047AC
:102860000A460021818BC1F30E014FF6FF7303EA84
:1028700002231943818370470A460021018C4FF6D9
:10288000FD7319401143018470470A460021018CF1
:102890004FF6F77319401143018470470A4600212F
:1028A000018C4FF6DF7319404FF6FF7303EA0213F2
:1028B0001943018470470A460021018C4FF67F734B
:1028C00019404FF6FF7303EA02131943018470475E
:1028D0000A460021018C4FF6FF5319404FF6FF7353
:1028E00003EA02231943018470470A460021018C40
:1028F0004FF2FF7319404FF6FF7303EA02231943A7
:10290000018470470A460021018C4DF6FF7319407F
:102910004FF6FF7303EA023319430184704730B561
:10292000002301248C40A3B2048C9C430484048CB7
:1029300002FA01F5ADB22C43048430BD30B500235A
:1029400004248C40A3B2048C9C430484048C02FABB
:1029500001F5ADB22C43048430BD70B503460020B0
:1029600000241846183001258D40ACB21D8CA543BB
:102970001D8409B1082909D100EB6100056825F023
:10298000700505600568154305600EE00D1FC5F371
:102990004E052844056825F4E045056005684FF6B6
:1029A000FF7606EA02263543056070BD21B1028834
:1029B00042F00202028004E002884FF6FD731A40E2
:1029C0000280704721B1028842F00402028004E0D4
:1029D00002884FF6FB731A400280704721B182884B
:1029E00042F08002828004E082884FF67F731A40B2
:1029F0008280704702884FF6F7731A40028002887F
:102A00000A430280704782884FF68F731A40828093
:102A100082880A438280704702894FF6F8731A4011
:102A2000028102890A430281704702894FF67F734F
:102A30001A40028102890A430281704781847047EB
:102A4000818570478186704701877047818770470D
:102A5000A0F84010704702884FF6FF431A400280EA
:102A600002880A43028070470146888E70470146FB
:102A7000088F70470146888F70470146B1F84000C3
:102A800070470146888C70470146088D70470246A2
:102A90000020138A0B400BB1012000E0002070479A
:102AA000CA430282704730B502460020002300244A
:102AB000158A05EA0103958905EA010413B10CB1F1
:102AC000012000E0002030BDCA43028270470000B0
:102AD00001684FF6FE721140016000210160416003
:102AE0008160C1608D49884208D18C4908394968A4
:102AF00041F00F01894A083A51608AE08749143150
:102B0000884208D185490839496841F0F001834A73
:102B1000083A51607DE081492831884208D17F49D7
:102B20000839496841F470617C4A083A516070E0A4
:102B30007A493C31884208D178490839496841F4DA
:102B40007041764A083A516063E0744950318842D6
:102B500008D172490839496841F470216F4A083A2E
:102B6000516056E06D496431884208D16B4908399B
:102B7000496841F47001694A083A516049E067497F
:102B80007831884208D165490839496841F0706157
:102B9000624A083A51603CE06149884206D1011F0F
:102BA000096841F00F01021F116032E05C491431E5
:102BB000884208D15A49091F096841F0F001584A72
:102BC000121F116025E056492831884208D1544926
:102BD000091F096841F47061514A121F116018E021
:102BE0004F493C31884208D14D49091F096841F4D9
:102BF00070414B4A121F11600BE049495031884225
:102C000007D14749091F096841F47021444A121F3E
:102C10001160704710B50022026847F6F0739A43BE
:102C20000C6A8B6823430C6923434C6923438C69EA
:102C30002343CC6923434C6A23438C6A23431A43BE
:102C40000260CB6843600B6883604B68C36010BD53
:102C50000021016041608160C16001614161816169
:102C6000C161016241628162704721B1026842F034
:102C70000102026004E002684FF6FE731A4002602F
:102C800070471AB103680B43036002E003688B438B
:102C900003607047416070470146486880B27047E2
:102CA00001460020002201F080531BB11C4B083B61
:102CB0001A6802E0194B083B1A6802EA01030BB1DB
:102CC000012000E00020704700F0805119B1144944
:102CD000091F086002E01149083948607047014641
:102CE0000020002201F080531BB10D4B083B1A68F5
:102CF00002E00A4B083B1A6802EA01030BB101200B
:102D000000E00020704700F0805119B10449091F0C
:102D1000086002E001490839486070470800024035
:102D20000804024010B50446FB48844209D1012141
:102D30008803FEF755FF00214FF48040FEF750FF57
:102D400032E0F648844209D101214804FEF755FFDC
:102D500000214FF40030FEF750FF25E0F048844298
:102D600009D101218804FEF748FF00214FF480209B
:102D7000FEF743FF18E0EB48844209D10121C80463
:102D8000FEF73BFF00214FF40020FEF736FF0BE07B
:102D9000E548844208D101210805FEF72EFF0021F5
:102DA0004FF48010FEF729FF10BD2DE9F04786B0E3
:102DB00005460E460024A24600BFA1460027B08962
:102DC00000B100BF2F462C8A4CF6FF700440F088FB
:102DD00004432C82AC894EF6F3100440B08831894C
:102DE0000843718908430443AC81AC8A4FF6FF4025
:102DF0000440B0890443AC8201A8FEF76AFEC648CD
:102E0000874202D1DDF810A001E0DDF80CA0A8890E
:102E100000F4004040B10AEBCA0000EB0A10316830
:102E20004900B0FBF1F807E00AEBCA0000EB0A101A
:102E300031688900B0FBF1F86420B8FBF0F00401C0
:102E40002009642101FB1089A88900F4004040B1E9
:102E5000322000EBC900B0FBF1F000F007000443A2
:102E600008E0322000EB09106421B0FBF1F000F023
:102E70000F0004432C8106B0BDE8F0874FF41651D3
:102E8000016000218180C18001810C2141810021EC
:102E90008181704710B502460020108A4FF2FF036F
:102EA00018400B884C8823438C882343CC882343C9
:102EB0001843108210BD0021018041808180C180B3
:102EC000704721B1828942F40052828104E08289F4
:102ED0004DF6FF731A4082817047F0B50346002417
:102EE00000260025002040F66A17B94200D100BF35
:102EF0001846C1F3421401F01F06012707FA06F530
:102F0000012C01D10C3004E0022C01D1103000E082
:102F100014301AB107682F43076002E00768AF4317
:102F20000760F0BD1AB1838A0B43838202E0838A73
:102F30008B4383827047028A4FF6F0731A400282F5
:102F4000028A0A430282704782894FF2FF731A4055
:102F5000828182890A438281704721B1828942F04D
:102F60000202828104E082894FF6FD731A40828159
:102F70007047028A4FF6DF731A400282028A0A43C0
:102F80000282704721B1028A42F48042028204E048
:102F9000028A4BF6FF731A4002827047C1F308029F
:102FA0008280704701468888C0F308007047818995
:102FB00041F0010181817047028BD2B20283028B02
:102FC00042EA012202837047028B02F47F420283AD
:102FD000028B0A430283704721B1828A42F02002A9
:102FE000828204E0828A4FF6DF731A408282704741
:102FF00021B1828A42F01002828204E0828A4FF676
:10300000EF731A408282704721B1828A42F008022F
:10301000828204E0828A4FF6F7731A4082827047F8
:1030200021B1828942F40042828103E08289C2F3A5
:103030000E028281704721B1828A42F4006282824C
:1030400004E0828A4FF2FF731A4082827047828ABC
:103050004FF6FB731A408282828A0A43828270474B
:1030600021B1828A42F00202828204E0828A4FF613
:10307000FD731A408282704702460020B1F5007F3E
:1030800000D100BF13880B400BB1012000E00020ED
:10309000704701F40072B2F5007F00D100BFCA434F
:1030A0000280704770B502460024002300250020EE
:1030B00040F66A16B14200D100BFC1F3421501F0DB
:1030C0001F03012606FA03F3012D02D1968933402E
:1030D00006E0022D02D1168A334001E0968A334081
:1030E0000C12012606FA04F41688344013B10CB110
:1030F000012000E0002070BD10B50022002340F642
:103100006A14A14200D100BF0A1201249440A3B264
:10311000DC43048010BD0000003801400044004042
:1031200000480040004C004000500040002044494E
:103130000860091D0860091D0860091D08604148F4
:103140003F4914310860704700213D498279002AC7
:103150003AD00A46126803689A430B461A600A1D61
:10316000126803689A430B1D1A60027911440A68B9
:1031700003681A430A60324A0832126803689A43A5
:103180002F4B08331A601A1D126803689A432C4BA0
:103190000C331A604279102A0ED11A1F1268036884
:1031A0001A43274B08331A601A1D126803681A4322
:1031B000234B0C331A600DE02149427911440A680F
:1031C00003681A430A6005E0027911440A6803683B
:1031D0009A430A6070470021016001710C2141711E
:1031E0000021817170471649103109680143144A62
:1031F00010321160704701460020114A14321268E3
:103200000A400AB1012000E0002070470C49143147
:1032100008607047014600200022094B1B6803EA42
:103220000102074B14331B680B4013B10AB1012094
:1032300000E0002070470249143108607047000028
:1032400000040140FFFF0F000121017000214170C7
:103250004FF47A71418041F61F41818042F20F7133
:10326000C180002101724172704738B504460CB923
:10327000002038BD207B8DF800002020005D8DF8F7
:1032800001002120005D8DF8020001208DF803006F
:103290006846FDF728FE0120EBE710B504460CB99F
:1032A000002010BDA068FEF705FD00212183A18349
:1032B000A17704F11601A068FEF7D0FD0121A068F6
:1032C000FFF7EEFB01221146A068FFF73EF901214E
:1032D000A068FFF71FF90120E3E710B504460CB919
:1032E000002010BDA068B0F1804F04D10121084634
:1032F000FEF769FC37E09649A068884204D10121B5
:103300000220FEF760FC2EE09249A068884204D1BA
:1033100001210420FEF757FC25E08F49A068884270
:1033200004D101210820FEF74EFC1CE08B49A06867
:10333000884204D10121C014FEF738FC13E088490B
:10334000A068884204D101212020FEF73CFC0AE05D
:103350008449A068884204D101214014FEF726FC6C
:1033600001E00020BDE70120BBE738B504461CB1F1
:10337000206808B1207908B9002038BD2079ADF85F
:10338000000002208DF8020010208DF8030069462D
:103390002068FEF74FF9607C012804D1217920686C
:1033A000FEF7F7F908E0607C20B921792068FEF784
:1033B000EEF901E00020E0E70021A1740120DCE744
:1033C00070B504460D460DB9002070BD66488442B4
:1033D00009D1664864490860042008716048886023
:1033E000372088811BE06248844209D15F486049E8
:1033F0000860082008715F488860362088810EE0E8
:103400005D48844209D159485B4908601020087121
:10341000534888603720888101E00020D5E728786C
:103420002074697861746988A182A988E182E98839
:103430006183297A20200155697A212001550021D4
:10344000A1742046FFF791FF08B90020BDE7204690
:10345000FFF743FF08B90020B7E72046FFF71DFF3D
:1034600008B90020B1E72046FFF7FFFE08B90020A9
:10347000ABE70120A9E710B504462CB1206818B1CC
:10348000207908B1207C08B9002010BD607C20B9EB
:1034900021792068FEF77DF906E0607C012803D1E0
:1034A00021792068FEF773F90121A1740120ECE76E
:1034B00010B504462CB1206818B1207908B1207CE1
:1034C00008B9002010BD607C20B921792068FEF782
:1034D0005EF906E0607C012803D121792068FEF7BF
:1034E00058F90021A1740120ECE702460AB9002036
:1034F000704791820120FBE770B5044600250CB9A6
:10350000002070BD0121A068FFF7CDFAF0B11B4883
:103510000068401C19490860A08A0968B1FBF0F2F4
:1035200000FB121070B9A08A14490968B1FBF0F5CC
:1035300005F0010018B92046FFF79DFF02E0204684
:10354000FFF7B6FF0121A068FFF7BEFA0120D8E718
:103550000004004000080040000C0040002C014026
:103560000014004000340140E80000200008014041
:103570000C01002000100040300100202800002035
:10358000012101704170002181700421C17000216E
:103590008160416003210173417300218173C17314
:1035A0004FF4E131016100218182C18201834183B5
:1035B00041F2342181831721C183704738B5044615
:1035C0005CB1606848B1208938B1E06828B1208AD0
:1035D00018B1606908B1208B08B9002038BD208976
:1035E000ADF8000002208DF8020018208DF80300CD
:1035F00069466068FEF71EF821896068FEF7C9F821
:10360000208AADF800006946E068FEF713F8218AC9
:10361000E068FEF7BEF8208BADF8000004208DF8BE
:10362000030069466069FEF705F80120D6E710B58A
:1036300004460CB1207F08B9002010BD04F11D0123
:10364000206800F070FB012805D1606E08B1606E43
:1036500080470120F1E70020EFE710B5AE48FFF703
:10366000E6FF10BD10B504460CB1207F08B900205C
:1036700010BD04F13F01206800F03AFC012805D19B
:10368000A06E08B1A06E80470120F1E70020EFE7AF
:1036900010B5A148FFF7E6FF10BD10B59F48FFF732
:1036A000C6FF10BD10B59D48FFF7DCFF10BD10B57B
:1036B0009B48FFF7BCFF10BD10B59948FFF7D2FF3C
:1036C00010BD70B504460D4605B10DB9002070BDA2
:1036D00028782077A97884F86010E97884F8611058
:1036E000A98BA4F88C10E98BA4F88E10A968A166A8
:1036F0006968616604F16C0000F022F9207F0128FE
:1037000006D1012184F86C10697884F86D1004E00A
:10371000002184F86C1084F86D10297B84F88810DF
:10372000697B84F88910A97B84F88A10E97B84F886
:103730008B104FF4E131A1670021A4F88010A4F8A8
:103740007C10A4F87E10A4F88410E978A4F8821004
:103750007348844215D173487149086072484860C3
:10376000801508817048C860401508826E4848611D
:1037700080200883AFF2BF012167AFF2CD016167FE
:1037800030E06648844215D168486449086068485A
:103790004860C01408816648C86080140882644884
:1037A000486140140883AFF203112167AFF215118D
:1037B000616717E05848844214D15E485649086052
:1037C0005D484860C01408815B48C8608014088266
:1037D0005948486140140883AFF24B112167AFF29A
:1037E000851161672046FFF7E9FE08B900206EE702
:1037F00004F16C01206800F08FF90021617701204D
:1038000065E710B504460CB9002010BD01202077F3
:10381000206800F09DFB0120F7E710B504460CB9C5
:10382000002010BD00202077206800F0ABFB0120B5
:10383000F7E770B504460D462CB1207F18B194F817
:103840006100082801D1002070BD607F01281BD1D4
:1038500000BF00BFEFF310803849086072B600BFA8
:1038600001202870A07F68706A7804F11F01A81CED
:1038700002F0C7FC0021617700BF3049086880F37F
:10388000108800BF00BF01E00020DDE70120DBE77A
:1038900030B589B004460D4634B12DB1207F18B142
:1038A00094F86100042802D1002009B030BD94F8DA
:1038B000600048B928788DF800002A78691C0DF15D
:1038C000010002F09EFC1DE094F86000012817D171
:1038D0002878C01CC0B28DF80000B4F88C0000122B
:1038E0008DF8010094F88C108DF8021094F88E1069
:1038F0008DF803102A78691C01A802F082FC01E00F
:103900000020D2E76946206800F0F2FA012800D1D1
:10391000CBE70020C9E7000074020020E40100208A
:1039200054010020AC030020000C0140580300208B
:103930000008014004030020001001402C0000207A
:103940000121017041704FF4E131C1600022828297
:10395000028242820C22C28200220283032101776A
:10396000417700218177C17741608160704738B528
:10397000044620798DF8000094F850008DF801007D
:1039800094F851008DF8020001208DF8030068467C
:10399000FDF7A9FA2920005D012810D1207F8DF8BC
:1039A000000094F852008DF8010094F853008DF84F
:1039B000020001208DF803006846FDF794FA38BD37
:1039C00010B58CB00446206A08B1012000E0002048
:1039D000A16909B1012100E00021084000283CD084
:1039E0002920005D012838D1206AFFF771F820688E
:1039F000001D0190206B401C0290002003902020AD
:103A000004900020059080200690002007900890E8
:103A100009904FF440500A9000200B9001A9206AB1
:103A2000FFF7F8F82021206AFFF734F9A069FFF7C3
:103A30004FF8E06A401C0290102003902020049070
:103A400001A9A069FFF7E6F801220221A069FFF7AA
:103A500018F90021A069FFF71DF90CB010BD38B5A9
:103A600004461CB1A06808B1206908B9002038BD1F
:103A70006846FDF76AFEA089ADF8000002208DF8C7
:103A8000020018208DF803006946A068FDF7D2FDFA
:103A9000A08AADF8000004208DF803006946206973
:103AA000FDF7C8FD0120E2E710B504461CB1A0688F
:103AB00008B1206908B9002010BD2920005D012847
:103AC00003D101210846FEF764F8F74920698842CE
:103AD00002D0A068884203D101210420FEF766F8D5
:103AE000F2492069884202D0A068884203D10121AE
:103AF0000820FEF75BF8EE492069884202D0A068F2
:103B0000884203D101211020FEF750F80121084618
:103B1000FEF74CF80120CFE770B504460D4604B11E
:103B20000DB9002070BD287884F82800E14884424F
:103B30001BD1E148DF49086027200871DB48886015
:103B400000158881D9480861C0148882DB488861E3
:103B50000C200877D948143008620D2081F8240021
:103B6000D7492163D749E16241E0D74884421CD15B
:103B7000D648D549086026200871CB4888600420C3
:103B80008881C948086108208882CC4864308861EF
:103B900011200877C94850300862102081F82400AD
:103BA000CB492163CB49E16221E0CB4884421CD15F
:103BB000CA48C949086025200871BB48886040157B
:103BC0008881B948086100158882BC48283088611E
:103BD0000E200877B9483C3008620F2081F8240095
:103BE000BF492163BF49E16201E000209AE7A06973
:103BF00008B1206A18B900212920015502E069782E
:103C0000292001550021206B01700121342001552C
:103C10000021352001556968A164A968E164E9685B
:103C2000A163A98AA4F84010298AA187698AE1873B
:103C3000E98AA4F84210298BA4F84410297F84F85B
:103C40005010697F84F85110A97F84F85210E97FE1
:103C500084F853102046FFF727FF08B9002061E7DA
:103C60002046FFF7FCFE08B900205BE704F13801AD
:103C70002068FFF79AF82920005D60B9012240F220
:103C800025512068FFF729F9012240F226612068BA
:103C9000FFF723F910E0206A08B1012000E00020BE
:103CA000A16909B1012100E00021084020B10122F1
:103CB000C0212068FFF736F9012240F22441206834
:103CC000FFF70BF92046FFF77BFE2046FFF74FFE7C
:103CD000206A08B1012000E00020A16909B101219A
:103CE00000E000210840A0B12920005D012808D192
:103CF0000121206AFEF7B9FF0121A069FEF7B5FF97
:103D000007E00021206AFEF7B0FF0021A069FEF75E
:103D1000ACFF01212068FFF7D4F840212068FFF7AD
:103D2000B8F90120FEE670B505460C4605B10CB9A0
:103D3000002070BD3520405D012843D15D48A84278
:103D400012D100F039FA012020705D4800786070CF
:103D500062785B49491CA01C02F053FA002135200F
:103D6000415500F023FA2FE05748A84212D100F045
:103D700023FA012020705648007860706278544918
:103D8000491CA01C02F03DFA00213520415500F0ED
:103D90000DFA19E05048A84212D100F00DFA0120A6
:103DA00020704F480078607062784D49491CA01C13
:103DB00002F027FA00213520415500F0F7F903E021
:103DC0000020B6E70020B4E70120B2E710B50446B2
:103DD000E06A08B9002010BD364884421ED142482E
:103DE0000178E06A007881420DDAE26A521C3E4BAB
:103DF0001B78D15C2068FFF7D1F83B480078401C65
:103E00003949087072E0A06C08B1A06C80470121AC
:103E10003420015500203449087067E02A48844264
:103E20001ED131484178E06A007881420DDAE26AB9
:103E3000521C2D4B5B78D15C2068FFF7AFF82A4805
:103E40004078401C2849487050E0A06C08B1A06C34
:103E5000804701213420015500202349487045E066
:103E60001D4884421ED120488178E06A0078814252
:103E70000DDAE26A521C1C4B9B78D15C2068FFF77C
:103E80008DF819488078401C174988702EE0A06C86
:103E900008B1A06C8047012134200155002012494F
:103EA000887023E0002096E700080140000C0140E4
:103EB0000010014004030020004800401C000240A4
:103EC000000400202104002058030020004400408A
:103ED0004204002063040020AC03002000380140AD
:103EE00084040020A504002037000020012072E790
:103EF00070B504460D4604B10DB9002070BD297897
:103F0000E06A01702A78E16A481C691C02F079F9BC
:103F10003420005D012817D10021342001552920CB
:103F2000005D01280CD1A069FEF79FFEE26A1178BE
:103F3000A069FEF7AFFE0121A069FEF796FE05E03D
:103F40002046FFF743FF01E00020D7E70120D5E737
:103F500010B504460CB9002010BD01212068FEF701
:103F6000B0FF206A60B1A06950B12920005D38B16E
:103F70000121A069FEF779FE0121206AFEF775FE96
:103F80000120E9E710B504460CB9002010BD00215E
:103F90002068FEF796FF2920005D012807D1002147
:103FA000A069FEF762FE0021206AFEF75EFE012096
:103FB000ECE770B504460CB9002070BD2920005D07
:103FC000012857D040F225512068FFF755F8012805
:103FD00043D17D48844213D12068FEF7E3FFC1B28C
:103FE000206B401C794A1278815440F22551206898
:103FF000FFF74FF875480078401C744908702CE0B2
:104000007348844213D12068FEF7CCFFC1B2206B05
:10401000401C704A1278815440F225512068FFF705
:1040200038F86C480078401C6A49087015E06A4806
:10403000844212D12068FEF7B5FFC1B2206B401C4C
:10404000664A1278815440F225512068FFF721F822
:1040500062480078401C6149087040212068FFF7E1
:104060000BF8012806D140212068FFF712F82046FE
:10407000FFF7ACFE10212068FEF7FEFF01285FD19C
:104080000121352001552920005D01282FD1002173
:10409000206AFEF7EAFD4C48844207D1206AFEF709
:1040A000FBFDC0F120004949087014E048488442F3
:1040B00007D1206AFEF7F0FDC0F1200045490870E5
:1040C00009E04548844206D1206AFEF7E5FDC0F1CB
:1040D000200042490870206B401C216AC8602021E2
:1040E000206AFEF7D7FD0121206AFEF7BEFD3648A3
:1040F000844207D135480078394908700020334997
:10410000087014E03248844207D1324800783549BB
:10411000087000202F49087009E02F48844206D11A
:104120002E4800783049087000202C490870E06C57
:1041300008B1E06C8047206805882068858800BF4A
:1041400001203AE770B504460CB9002070BD27493C
:10415000A069884202D12025202612E02349283177
:10416000A069884203D14FF400552E4609E01F494B
:104170006431A069884202D18504860401E00020F0
:10418000E4E72846FEF7ABFD01280DD13046FEF7E7
:104190009BFD0021A069FEF768FD01213420015537
:1041A000A06C08B1A06C80470120CFE710490868D7
:1041B00080F3108800BF704700BFEFF310800C49F8
:1041C000086072B67047000004030020340000202D
:1041D0005803002035000020AC03002036000020EA
:1041E0000004002042040020840400201C0002403F
:1041F0003000002010B50A48FFF7DBFE10BD10B5F7
:104200000848FFF7D6FE10BD10B50748FFF7D1FEEE
:1042100010BD10B50448FFF795FF10BD70477047FB
:10422000AC0300205803002004030020012101708A
:104230000021418042F20F7181806021C180FD49DF
:104240004161FD4A8261FD4AC261FD4A02624162EA
:10425000F94A8262F94AC262F94A026370472DE95B
:10426000F04F8BB004460D464FF00009CA464FF0A0
:104270007E500A9000264FF0000B1CB900200BB0B6
:10428000BDE8F08FD4F84090D4F844A0A06C0A9018
:104290000021484605F0BAFA01D289F00049002110
:1042A000504605F0B3FA01D28AF0004A00210A987C
:1042B00005F0ACFA01D2E3480A900DB1032D30D1DC
:1042C0000A9805F0C7F8CDE90801484605F0C2F89C
:1042D000DD4ADE4BCDE9040104F0ACFDCDE9060179
:1042E000DDE9082304F0A6FD074604F08BFA064634
:1042F0000A9805F0AFF8CDE90601484605F0AAF89E
:10430000D14AD24BCDE9040104F094FD0746DDE922
:10431000062304F08FFDCDE9080104F073FA83460B
:10432000C6E0062D03D100264FF0000BC0E0012DA2
:1043300001D0042D40D10A9805F08CF8CDE9060192
:10434000504605F087F80746C14AC24B04F072FD9B
:10435000CDE90201484605F07DF80746BA4ABB4B55
:1043600004F068FDCDE90001DDE9022304F07CFAE8
:10437000CDE90401DDE9062304F05CFDCDE9080187
:1043800004F040FA06460A9805F064F8CDE9080101
:10439000484605F05FF8AC4AAC4BCDE9040104F0A7
:1043A00049FDCDE90601DDE9082304F043FD074698
:1043B00004F028FA83467BE0022D01D0052D40D180
:1043C0000A9805F047F8CDE90601484605F042F89D
:1043D00007469D4A9D4B04F02DFDCDE90401DDE922
:1043E000062304F027FDCDE9080104F00BFA064688
:1043F0000A9805F02FF8CDE90601504605F02AF895
:104400000746934A934B04F015FDCDE90201484657
:1044100005F020F807468C4A8C4B04F00BFDCDE9E3
:104420000001DDE9022304F01FFACDE90401DDE912
:10443000062304F0FFFCCDE9080104F0E3F983460C
:1044400036E0082D01D0072D30D10A9805F002F88A
:10445000CDE90601504604F0FDFF07467C4A7D4B3E
:1044600004F0E8FCCDE90401DDE9062304F0E2FCF8
:10447000CDE9080104F0C6F906460A9804F0EAFFFF
:10448000CDE90601504604F0E5FF714A714BCDE9D4
:10449000040104F0CFFC0746DDE9062304F0CAFC62
:1044A000CDE9080104F0AEF9834601E00020E6E61C
:1044B00069480168304604F0F9FF80464FF08041BA
:1044C00005F062F807463A46314604F14C0001F027
:1044D00010FC62480168584604F0E8FF80464FF03F
:1044E000804105F051F807463A46594604F16C0000
:1044F00001F0FFFB3046616E04F0D8FF06465846D7
:10450000D4F8841004F0D2FF834653480660534821
:104510000068524908603146206800F0F6FB20B17F
:104520005946606800F0F1FB08B90020A7E60120B9
:10453000A5E670B504460D4600260CB9002070BDF6
:104540001DB1012D01D0022D01D1002615E0032D52
:1045500003D0042D01D0052D01D101260DE0082D39
:1045600001D1022609E0072D01D1032605E0062D21
:1045700001D1042601E00020E1E7052E70D2DFE83A
:1045800006F0031425364700A189A068FDF7FFF85F
:10459000A18BA069FDF7FDF8A18A2069FDF7F9F864
:1045A000A18C206AFDF7F3F85BE0A189A068FDF714
:1045B000F0F8A18BA069FDF7EAF8A18A2069FDF760
:1045C000E6F8A18C206AFDF7E4F84AE0A189A0682A
:1045D000FDF7DFF8A18BA069FDF7D9F8A18A206962
:1045E000FDF7D7F8A18C206AFDF7D1F839E0A18951
:1045F000A068FDF7CCF8A18BA069FDF7CAF8A18AE5
:104600002069FDF7C4F8A18C206AFDF7C2F828E004
:10461000A189A068FDF7BDF8A18BA069FDF7B9F8E5
:10462000A18A2069FDF7B5F8A18C206AFDF7B1F8E1
:1046300017E015E03333333FCDCCCC3DCDCC4C3EF1
:104640006666663F9A99193F9A9999999999E13FB7
:10465000CDCCCCCCCCCCDC3F4000002044000020B2
:1046600000BF00BF01206AE72DE9F04705460E466E
:1046700091469A46ADB14FF07E51304605F0C6F9ED
:104680000FD3CB49304605F0C1F80AD3C849484694
:1046900005F0BCF805D34FF07E51484605F0B6F959
:1046A00002D20020BDE8F0872E64C5F84490C5F81A
:1046B00048A0304604F0CEFE0746BE4ABE4B04F08A
:1046C0007DFB09D2304604F0C5FE0746B94ABB4B14
:1046D00004F0AEFC00D20026484604F0BBFE0746BC
:1046E000B44AB54B04F06AFB0AD2484604F0B2FE65
:1046F0000746B04AB14B04F09BFC01D24FF00009D1
:104700000021304605F082F914D20021484605F018
:104710007DF901D2012440E00021484605F076F8F9
:1047200001D2022439E00021484604F0EFFF34D1E1
:10473000002432E00021304605F068F814D2002150
:10474000484605F063F901D2042426E000214846DA
:1047500005F05CF801D205241FE00021484604F072
:10476000D5FF1AD1032418E00021304604F0CEFF13
:1047700013D10021484605F049F901D207240CE085
:104780000021484605F042F801D2082405E0002146
:10479000484604F0BBFF00D106240021A86C05F0B8
:1047A00035F809D2304604F055FE0746844A854B59
:1047B00004F03EFC00D2062483480078844203D0F3
:1047C00021462846FFF7B5FE21462846FFF747FD5C
:1047D00008B9002066E77C480470012062E738B51C
:1047E00004467CB1A06868B1A08958B1206948B17D
:1047F000A08A38B1A06928B1A08B18B1206A08B18D
:10480000A08C08B9002038BD10208DF803000220CC
:104810008DF80200A089ADF800006946A068FCF799
:1048200009FFA08AADF8000069462069FCF702FF85
:10483000A08BADF800006946A069FCF7FBFEA08CD8
:10484000ADF800006946206AFCF7F4FEA189A06873
:10485000FCF79FFFA18A2069FCF79BFFA18BA06951
:10486000FCF797FFA18C206AFCF793FF0120CAE7B1
:1048700070B504460D4604B10DB9002070BD04F1B9
:104880002A0000F0B3F8287884F828006988A18508
:10489000A988E185E98821864C48844215D14C4895
:1048A0004A4908604B4848604B488860012088812D
:1048B000494808610420888247488861022088832B
:1048C00045480862082088841AE04448844215D18B
:1048D0004348424908604348486043488860102084
:1048E000888141480861202088823F4888614020B3
:1048F00088833D4808628020888401E00020BDE76D
:1049000004F12A01206800F0A5F828B104F12A0179
:10491000606800F09FF808B90020AFE705F11401C6
:1049200004F14C0001F0D1F930B105F1240104F19A
:104930006C0001F0CAF908B900209FE72046FFF794
:104940004EFF08B9002099E74FF07E530022114630
:104950002046FFF789FE08B900208FE701208DE788
:1049600010B504460CB9002010BD012084F82800C1
:10497000206800F0A8F918B9606800F0A4F908B13F
:104980000020F1E70120EFE710B504460CB9002044
:1049900010BD002084F82800206800F0A5F918B99F
:1049A000606800F0A1F908B10020F1E70120EFE70D
:1049B000000080BF9A9999999999A93F9999A9BF9F
:1049C0007B14AE47E17A843F3C000020C8040020FD
:1049D00014060020E00500200010014054050020CE
:1049E000480600207C0600200020014001210170C3
:1049F0000021418042F20F7181806021C18001213C
:104A000001810021418141F2883181810021C181F0
:104A1000018241828182704738B504461CB1E0684A
:104A200008B1208A08B9002038BDA06818B101215A
:104A3000A068FCF7D0FE208AADF8000018208DF8A1
:104A4000030002208DF802006946E068FCF7F2FDE1
:104A50000120E9E72DE9F04104460D4604B115B9FE
:104A60000020BDE8F081287820756988E182A98856
:104A70006183E9882184298961846989A184A9895C
:104A8000E184E9892185298A6185698AA185A98AC4
:104A9000E185C34884420BD1C248C1490860012066
:104AA000888000208860C048C86040200882AAE052
:104AB000BE4884420BD1BB48BC49086002208880B4
:104AC00000208860B848C860802008829BE0B84811
:104AD00084420BD1B348B649086003208880002087
:104AE0008860B448C860012008828CE0B2488442E3
:104AF0000BD1AC48B0490860042088800020886051
:104B0000AC48C860022008827DE0AC4884420BD1EA
:104B1000AB48AA49086001208880AA488860AA4852
:104B2000C860401508826EE0A84884420BD1A448B2
:104B3000A649086002208880A2488860A248C86010
:104B4000C01408825FE0A24884420BD19C48A0496F
:104B50000860032088809B4888609B48C860401498
:104B6000088250E09B4884420CD1954899490860DE
:104B700004208880934888609348C8604FF4804040
:104B8000088240E0944884420BD1944892490860DE
:104B900001208880000388609148C86080140882E2
:104BA00031E0904884420BD18C488E490860022045
:104BB0008880C00288608A48C8604014088222E069
:104BC000894884420DD18548874908600320888040
:104BD0004FF4805088608248C8604FF4804008825B
:104BE00011E0824884420CD17C488049086004204E
:104BF0008880800288607A48C8604FF4004008824C
:104C000001E000202DE72046FFF706FF08B900204D
:104C100027E700212183A183A17704F116012068F1
:104C2000FDF71CF9A088012809D104F120012068B2
:104C3000FDF751F908212068FDF79CFD28E0A088C8
:104C4000022809D104F120012068FDF786F9082126
:104C50002068FDF798FD1BE0A088032809D104F126
:104C600020012068FDF7C6F908212068FDF798FDAE
:104C70000EE0A088042809D104F120012068FDF786
:104C800004FA08212068FDF794FD01E00020E8E621
:104C9000618B481C04F08EFD0646E08C04F0A2FDFA
:104CA0000746314604F070FC206301212068FDF7BF
:104CB00031FD01212068FDF72DFC01212068FDF761
:104CC00035FC0120CDE610B504460CB9002010BD1E
:104CD0000120207501212068FDF71CFC01212068BE
:104CE000FDF724FC0120F2E710B504460CB90020C2
:104CF00010BD0020207500212068FDF717FC002161
:104D00002068FDF707FC0120F2E72DE9F041044699
:104D10000D46002614B90020BDE8F081344928462C
:104D200004F074FE02D23249216308E0314928467A
:104D300004F06CFD02D20021216300E02563618B49
:104D4000481C04F037FD8046216B04F093FD0746B4
:104D500004F010FD86B2A088012804D131462068F5
:104D6000FDF770FE19E0A088022804D131462068C2
:104D7000FDF76AFE11E0A088032804D131462068BF
:104D8000FDF764FE09E0A088042804D131462068BC
:104D9000FDF75EFE01E00020BEE70120BCE7000059
:104DA000E005002000040040000801401406002037
:104DB00048060020000C01407C060020B0060020C0
:104DC000002C0140C000160000180140E40600203D
:104DD000180700204C070020800700200008004032
:104DE00000140140B4070020E80700201C08002040
:104DF0003333733FCDCC4C3D012101704170002114
:104E000081701021C170022101710321417170472D
:104E100038B504460CB9002038BD20798DF8000063
:104E2000A07D8DF80100E07D8DF8020001208DF855
:104E300003006846FCF757F80120EDE738B5044653
:104E40000CB9002038BDA089ADF8000048208DF8CD
:104E5000030002208DF802006946A068FCF7EAFB17
:104E6000E17BA07BFCF7FCFC0120EBE77CB5044672
:104E70000D4604B10DB900207CBD287820746978F6
:104E80006174A9782175E97861752979A1756979C5
:104E9000E1750021A174E174594884420CD10120CC
:104EA00057490860062008715648886001208881AB
:104EB00000208873C87356E0534884420DD1022005
:104EC00051490860072008714E4888600220888197
:104ED000002088730120C87345E04C4884420DD1FE
:104EE00004204A4908600820087146488860042068
:104EF0008881002088730220C87334E044488442CB
:104F00000DD1082042490860092008713D48886099
:104F100008208881002088730320C87323E03D485F
:104F200084420DD110203B4908600A2008713548A1
:104F3000886010208881002088730420C87312E0E4
:104F4000354884420DD1202033490860172008716C
:104F50002C48886020208881002088730520C87331
:104F600001E0002088E72046FFF768FF08B900202D
:104F700082E7607C8DF8060020680090207D8DF827
:104F80000400607D8DF805006846FEF7DDF82046D8
:104F9000FFF73EFF08B900206EE701206CE70146ED
:104FA00009B9002070470120087401224A7400BF2B
:104FB000F8E7014609B90020704700200874002274
:104FC0004A740120F8E710B504460CB9002010BD62
:104FD0002068FEF710F901280DD1A189A068FCF71F
:104FE000BCFB10B10121A17401E00121E174206832
:104FF000FEF70CF901E00020E9E70120E7E70000F7
:1050000050080020000801406808002080080020A7
:1050100098080020B0080020C80800200121017075
:1050200041708170C1704721818040F2E731C180B9
:10503000002101724172704738B504460CB9002056
:1050400038BD207A8DF800002620005D8DF8010023
:105050002720005D8DF8020001208DF803006846CE
:10506000FBF741FF0120EBE710B504460CB9002027
:1050700010BD0021E183618484F824106068FCF78E
:1050800019FE04F11C016068FCF7E8FE012160686C
:10509000FDF706FD012211466068FDF756FA002172
:1050A0006068FDF737FA0120E2E738B504460CB92D
:1050B000002038BD208AADF8000010208DF80300D4
:1050C00002208DF802006946E068FCF7B3FA218AF5
:1050D000E068FCF75EFB0120EBE770B504460D4687
:1050E00004B10DB9002070BD28782075697861750C
:1050F000A9786176E978A176A988A183E9882184D5
:10510000297A26200155697A272001550021218519
:1051100061852C2001552D200155684884420AD113
:105120006748206067486060322020816648E06000
:10513000022020820FE0654884420AD16448206042
:1051400064486060362020815F48E0600220208251
:1051500001E00020C7E72046FFF7A7FF08B90020BD
:10516000C1E72046FFF780FF08B90020BBE72046D3
:10517000FFF762FF08B90020B5E70121A175002102
:10518000E1751021217604F115012068FFF76EFE0C
:105190000120A8E710B504460CB9002010BD01207D
:1051A00020752068FFF7FBFE0120F7E710B50446E5
:1051B0000CB9002010BD002020752068FFF7F9FE13
:1051C0000120F7E710B504460CB9002010BD218A74
:1051D000E068FCF7DCFA0A20FBF71AFD218AE06898
:1051E000FCF7D7FA01212D2001550120EEE770B51B
:1051F000044625680CB9002070BD3748007820B1FE
:10520000012813D002283BD11DE02D20005D01288C
:1052100007D1A87C012804D10021A9742E49087067
:1052200003E000202C4908702EE000BF00212185FA
:105230006068FDF703FC01216068FDF76BF902204F
:105240002549087020E000216068FDF763F9E87CDB
:10525000012811D10021E9746068FDF712FC0146B4
:10526000228D208C401C02FB0010608501212C2027
:10527000015500212D20015500201749087003E039
:1052800000201549087000BF00BF0021A974E9740F
:105290000120B1E710B504460CB9002010BD012172
:1052A0006068FDF700FC30B101216068FDF70CFC7F
:1052B000208D401C20850120F0E70000E008002040
:1052C00050080020000C0040000801401009002098
:1052D00068080020001000404800002010B5224857
:1052E0000079062813D12048FFF76DFE1F4800689B
:1052F0001D49884203D11D48FFF779FF07E01C488C
:1053000000681949884202D11948FFF770FF10BDA3
:1053100010B518480079172813D11648FFF753FE27
:10532000124800681349884203D11048FFF75FFF15
:1053300007E00F4800680F49884202D10C48FFF788
:1053400056FF10BD10B509480089322803D107481F
:10535000FFF7A0FF06E006480089322802D1044882
:10536000FFF798FF10BD000050080020E008002063
:1053700010090020C808002010B518488089362878
:1053800003D11648FEF7B8F80EE015488089362894
:1053900003D11348FEF7B0F806E01248808936289A
:1053A00002D11048FEF7A8F810BD10B50B4880894F
:1053B000372803D10948FEF79FF80EE00848808996
:1053C000372803D10648FEF797F806E0054880899C
:1053D000372802D10348FEF78FF810BDE8000020FF
:1053E0000C010020300100200121017004214170D6
:1053F00040F271214180704770B504460D460DB9E9
:10540000002070BD2878207068786070688860809F
:105410002520FCF72FFC6078FCF72FFC6088FCF758
:105420002FFCFCF730FCFCF733FC0120E9E710B55A
:10543000FCF729FC10BD00000121017070472DE927
:10544000F04104460D461646002714B90020BDE879
:10545000F081012E04D1A18BA069FCF798F907E037
:1054600026B9A18BA069FCF794F901E00020EEE7D2
:10547000A18C206AFCF78DF9002717E0A18820682D
:10548000FCF787F905F0800020B1A189A068FCF73E
:105490007EF903E0A189A068FCF77BF9A188206868
:1054A000FCF775F96806050E781CC7B2082FE5DB16
:1054B000A18C206AFCF76BF9A18BA069FCF767F956
:1054C0000120C4E710B501460022002309B90020DD
:1054D00010BD00230DE0002207E0002401F12900A7
:1054E00000EBC200C454501CC2B2802AF5DB581C29
:1054F000C3B2082BEFDB0120EAE710B504460CB974
:10550000002010BDA18A2069FCF743F96420FBF755
:105510008BFBA18A2069FCF73AF90120F1E738B545
:1055200004467CB1206868B1A08858B1A06848B131
:10553000A08938B1206928B1A08A18B1A06908B142
:10554000A08B08B9002038BD10208DF80300022080
:105550008DF80200A088ADF8000069462068FCF7CD
:1055600069F8A089ADF800006946A068FCF762F808
:10557000A08AADF8000069462069FCF75BF8A08BB3
:10558000ADF800006946A069FCF754F8A08CADF8AE
:1055900000006946206AFCF74DF8A1882068FCF7F6
:1055A000F6F8A189A068FCF7F2F8A18A2069FCF757
:1055B000EEF8A18BA069FCF7EAF8A18C206AFCF751
:1055C000E6F80120BFE770B504460D4604B10DB9F9
:1055D000002070BD287884F82800F848844214D14F
:1055E000F74820601020A080F548A0602020A0810E
:1055F000F34820614020A082F148A0618020A08370
:10560000EF4820628015A08419E0EE48844214D14E
:10561000EB4820604015A080E948A0600015A081FB
:10562000E7482061C014A082E548A0618014A083EF
:10563000E34820624014A08401E00020C9E720462E
:10564000FFF76DFF08B90020C3E72046FFF755FFBD
:105650000022AE212046FFF7F2FE0022114620462E
:10566000FFF7EDFE002210212046FFF7E8FE0022A2
:1056700040212046FFF7E3FE002281212046FFF76C
:10568000DEFE0022CF212046FFF7D9FE0022A12115
:105690002046FFF7D4FE0022C8212046FFF7CFFEA8
:1056A0000022A6212046FFF7CAFE0022A82120469C
:1056B000FFF7C5FE00223F212046FFF7C0FE002273
:1056C000D3212046FFF7BBFE002211462046FFF7FC
:1056D000B6FE0022D5212046FFF7B1FE0022802130
:1056E0002046FFF7ACFE0022D9212046FFF7A7FE97
:1056F0000022F1212046FFF7A2FE0022DA212046F7
:10570000FFF79DFE002212212046FFF798FE00229F
:10571000DB212046FFF793FE002240212046FFF7C1
:105720008EFE002220212046FFF789FE0022022162
:105730002046FFF784FE00228D212046FFF77FFEE2
:10574000002214212046FFF77AFE0022A4212046E1
:10575000FFF775FE0022A6212046FFF770FE2046C7
:10576000FFF7B0FE0022AF212046FFF768FE0120C0
:105770002FE7F0B504461D460CB90020F0BD012D01
:1057800021D1D61702EB5676F71004F1290606EB65
:10579000C106F65D1346D71702EB5777FF10A2EB51
:1057A000C70C012707FA0CF73E43F7B21046D6178D
:1057B00002EB56764FEAE60C04F1290606EBC10629
:1057C00006F80C704FE0EDBB1046D61702EB56768C
:1057D000F71004F1290606EBC106F65DF643F7B2B1
:1057E0001346D61702EB56764FEAE60C04F129066B
:1057F00006EBC10606F80C70D61702EB5676F710CA
:1058000004F1290606EBC106F65DD71702EB5777C0
:10581000FF10A2EBC70C012707FA0CF73E43F7B2C3
:10582000D61702EB56764FEAE60C04F1290606EB92
:10583000C10606F80C70D61702EB5676F71004F185
:10584000290600E00FE006EBC106F65DF643F7B26D
:10585000D61702EB56764FEAE60C04F1290606EB62
:10586000C10606F80C70012088E72DE9FF4F0746B6
:105870000C461646A246B3461FB9002004B0BDE848
:10588000F08F002532E0039820384F4901EB0010DB
:1058900010F805904FF0000817E009F0010030B152
:1058A0000123324621463846FFF763FF05E0002317
:1058B000324621463846FFF75CFF4FEA6909701C03
:1058C000C6B208F1010000F0FF08B8F1080FE4DBF0
:1058D000601CC4B2A4EB0A00082804D154460BF1A2
:1058E000080000F0FF0B5E46681CC5B2102DCADB35
:1058F0000120C3E72DE9FF4F89B081460D461E46C2
:105900000024A246304603F045FACDE9060102F034
:10591000D9F9074603F0F8F9401C00F0FF0BB9F184
:10592000000F03D100200DB0BDE8F08F002440E04F
:10593000204603F02FFA07468846584603F02AFA15
:105940003A464346CDE9000103F09AFC00221F4B82
:10595000CDE9020103F094FC02460B46CDE90401B7
:1059600000201B4902F020FACDE9060103F0CCF932
:10597000B6FBF0F00A21B0FBF1F201FB120ABAF11A
:10598000000F09D1082000FB0450C1B23023484663
:105990000B9AFFF76AFF0AE00AF13000C3B2082051
:1059A00000FB0450C1B248460B9AFFF75EFF601C33
:1059B000C4B25C45BCDB0120B5E7000070090020E3
:1059C000002001409C0D0020629C00080000F03F78
:1059D00000002440F0B505460E4617461C460DB99A
:1059E0000020F0BD09E023783A4631462846FFF70B
:1059F0003CFF06F10800C6B2641C2078202802DBB8
:105A000020787E28EFDD0120EBE770B50546002603
:105A100000240DB9002070BD002421E004F1B00085
:105A2000C1B200222846FFF70AFD0022114628468F
:105A3000FFF705FD002210212846FFF700FD002694
:105A40000AE005F1290000EBC600015D01222846AD
:105A5000FFF7F5FC701CC6B2802EF2DB601CC4B2EE
:105A6000082CDBDB0120D6E70121017041704FF4E7
:105A7000E13141600021018141818181C1810321A6
:105A8000017441748174C17470470FB410B58AB049
:105A9000044624B900200AB010BC5DF814FB0EA81F
:105AA000019002A8019A0D9900F07AFB0020019064
:105AB00002A800F087FBA074A27C02A904F11300E5
:105AC00000F09FFB04F112012068FEF711FA01209B
:105AD000E1E770B504460D46002604B10DB900207B
