:020000040800F2
:1000000000040020874D0008954D00083D040008BD
:10001000994D00089B4D00089D4D00080000000010
:100020000000000000000000000000009F4D0008DC
:10003000A14D000800000000A34D00080F0D0008AE
:10004000A74D0008A74D0008A74D0008A74D0008C0
:10005000A74D0008A74D0008A74D0008A74D0008B0
:10006000A74D0008A74D0008A74D0008A74D0008A0
:100070003D100008A74D00084F100008A74D0008CC
:10008000A74D000861100008A74D0008A74D000803
:10009000A74D0008A74D0008A74D0008A74D000870
:1000A000A74D0008A74D0008A74D0008A74D000860
:1000B000A74D0008A74D0008A74D0008A74D000850
:1000C000A74D0008A74D0008A74D0008A74D000840
:1000D000A74D0008E30F0008F50F000807100008FF
:1000E000A74D0008A74D0008A74D0008A74D000820
:1000F000A74D0008A74D0008A74D0008A74D000810
:10010000A74D0008A74D0008A74D0008A74D0008FF
:10011000191000082B100008A74D0008A74D000873
:10012000A74D0008A74D0008A74D00087310000850
:1001300000F002F800F05AF80AA090E8000C82449F
:100140008344AAF10107DA4501D100F04FF8AFF27C
:10015000090EBAE80F0013F0010F18BFFB1A43F0A5
:1001600001031847FC9300001C9400000A444FF060
:10017000000C10F8013B13F0070408BF10F8014B06
:100180001D1108BF10F8015B641E05D010F8016B4B
:10019000641E01F8016BF9D113F0080F1EBF10F8AF
:1001A000014BAD1C0C1B09D16D1E58BF01F801CBD2
:1001B000FAD505E014F8016B01F8016B6D1EF9D555
:1001C0009142D6D37047000000230024002500266A
:1001D000103A28BF78C1FBD8520728BF30C148BFAA
:1001E0000B6070471FB51FBD10B510BD07F0DEFBDB
:1001F0001146FFF7F7FF00F0ECF807F0FCFB03B443
:10020000FFF7F2FF03BC07F0FDFB000070B586B0FE
:1002100001A805F0F8FC4FF47A710298B0FBF1F4F4
:10022000E4082146B1F1807F00D31BE021F07F403C
:10023000401E4FF0E022506150170F22002806DACE
:1002400013010B4D00F00F06361FAB5502E01301F2
:10025000084D2B5400BF00204FF0E0229061072092
:10026000106100BF6FF0040004F000FE06B070BD26
:1002700018ED00E000E400E010B590B00AA802F02C
:100280008EFD1D480B9008208DF831000AA91B48EF
:1002900002F094FD00218DF8241000208DF802005A
:1002A0008DF8000004246946204600F072FD10B06D
:1002B00010BD00B587B0684600F0FEFE69461048E4
:1002C00001F010F869460F4801F00CF869460E4835
:1002D00001F008F869460D4801F004F807B000BDC8
:1002E00010B5FFF793FF00F02FFDFFF7C5FFFFF7F5
:1002F000E0FF00F0CDFE10BDAC150020BC0B0020CF
:100300004801002050010020580100206001002019
:10031000704710B500F05BFE00F02FFA10BD70477B
:100320007047704710B500F072FC00F03BFA10BD4A
:100330007047704710B505F069FB4FF4803005F049
:1003400085FB05F0C2FB0446012C24D1102004F0EB
:10035000E7FE022004F0D0FE002005F0FCFB0020A8
:1003600005F00BFC002005F0FFFB4FF4E01120042A
:1003700005F0D4FB012005F0DDFB00BF392005F0BE
:1003800088FB0028FAD0022005F0D7FB00BF05F05B
:10039000DDFB0828FBD1012005F028FC00BF61200F
:1003A00005F077FB0028FAD00121042005F098FC25
:1003B0000121082005F094FC0121084605F090FC7D
:1003C0000121880305F08CFC0121084605F07BFC27
:1003D00010BD8EB0FFF7AEFFFFF782FFAFF2CF0088
:1003E0000590AFF2D1000690AFF2CD000790AFF2CA
:1003F000CF000990AFF2D5000A90AFF2D7000B9072
:10040000AFF2D3000C90AFF2D5000D90142209A9E1
:10041000684607F083FA05A80FC800F08DF800F0D1
:10042000A8F803E000F043FE00F00AF8FAE7002124
:1004300001E000BF491C8142FBD9704770470000B2
:1004400010B54F48007801284BD14E4908688047C5
:100450004B484088022805DB00204949488049492B
:100460004868804746488088032805DB00204449C7
:1004700088804449886880474148C088052805DB52
:1004800000203F49C8803F49086980473C480089AF
:100490000A2805DB00203A4908813A494869804723
:1004A00037484089142805DB002035494881354903
:1004B0008869804732488089322805DB002030492E
:1004C00088813049C86980472D48C089642805DB88
:1004D00000202B49C8812B49086A80470020284901
:1004E000087010BD26484088401C254948800846B1
:1004F0008088401C88800846C088401CC880084608
:100500000089401C088108464089401C48810846F3
:100510008089401C88810846C089401CC8810846E3
:100520000078012804D108464078401C487002E059
:1005300001201349087070470FB410B512480078B5
:10054000A0B9104902980860039848600498886030
:100550000698086107984861089888610998C861F9
:100560000A980862AFF2830000F058FB10BC5DF8F7
:1005700014FB10B500F058FB01200349087010BDB2
:1005800004020020140200200000002010B58CB0EE
:1005900000208DF82C000BA97A4801F061FF9DF82E
:1005A0002C00012817D1002401A9204600F062FC8C
:1005B00001208DF8060000208DF80400BDF82E10F3
:1005C000ADF8081000BF01A9204600F0E2FB0020B2
:1005D0006D49087004E06C480078401C6A49087056
:1005E0000BA96A4801F03CFF9DF82C00012817D1A7
:1005F000012401A9204600F03DFC01208DF80600F1
:1006000000208DF80400BDF82E10ADF8081000BFD2
:1006100001A9204600F0BDFB00205D49087004E000
:100620005B480078401C5A4908700BA9594801F0F2
:1006300017FF9DF82C00012817D1022401A920469C
:1006400000F018FC01208DF8060000208DF8040051
:10065000BDF82E10ADF8081000BF01A9204600F02B
:1006600098FB00204C49087004E04B480078401C7F
:10067000494908700BA9494801F0F2FE9DF82C0089
:10068000012817D1032401A9204600F0F3FB012023
:100690008DF8060000208DF80400BDF82E10ADF88E
:1006A000081000BF01A9204600F073FB00203C4960
:1006B000087004E03A480078401C39490870324814
:1006C0000078192812DD002401A9204600F0D2FB91
:1006D00019202D49087000208DF8060001208DF8A2
:1006E000040000BF01A9204600F053FB2848007811
:1006F000192812DD012401A9204600F0BBFB1920B6
:100700002349087000208DF8060001208DF80400B0
:1007100000BF01A9204600F03CFB1F4800781928C3
:1007200012DD022401A9204600F0A4FB19201A4979
:10073000087000208DF8060001208DF8040000BF2D
:1007400001A9204600F025FB15480078192812DD84
:10075000032401A9204600F08DFB192010490870E0
:1007600000208DF8060001208DF8040000BF01A9CB
:10077000204600F00EFB0CB010BD10B5FFF706FFD1
:1007800010BD0000480100200100002050010020A1
:10079000020000205801002003000020600100201A
:1007A0000400002030B593B0042509A9284600F0C4
:1007B00061FB9DF826008DF800009DF848008DF83B
:1007C0002200002407E00AA830F81410263820F888
:1007D0001410601CC4B2102CF5DB6946024803F00B
:1007E000B2FC13B030BD0000BC0B00202DE9F0417D
:1007F0000426FA49304600F03DFB0026F849304611
:1008000000F038FBF648007808B9012000E000202D
:10081000F3498978012900D100E00021084265D020
:10082000EF484078012839D1ED488488B4F5006F4D
:1008300001DB40F2FF74B4F5806F01DA4FF480649D
:10084000A4F5806008F0E2FB8046E64908F03EFC33
:10085000074608F0BBFB84B204F5806081B2DF4834
:1008600081808088B0F5006F03DB40F2FF71DB48C8
:100870008180DA488088B0F5806F03DA4FF48061B8
:10088000D64881800020D6498870D44890F824004A
:1008900020F00101D14880F8241036E0D049888842
:1008A00000EBD071491001F580618AB2CB498A8092
:1008B00008468088B0F5006F03DB40F2FF71C7483F
:1008C0008180C6488088B0F5806F03DA4FF480617C
:1008D000C24881800020C2498870C04890F8240036
:1008E00020F00101BD4880F824100EE0BC480078DB
:1008F00001280AD18102B948818090F8240020F0B3
:100900000100401CB54981F824000126B449263174
:10091000304600F0AFFAB24890F8260008B901203E
:1009200000E00020AE4991F82810012900D100E034
:10093000002108424FD0AA4890F82700012821D171
:10094000A748418DA548C180C088B0F5006F03DB82
:1009500040F2FF71A148C180A048C088B0F5806F07
:1009600003DA4FF480619D48C18000219C4880F8E3
:1009700028109A4890F8240020F00201974880F847
:10098000241038E09649488D00EBD071491001F5EC
:1009900080618AB29149CA800846C088B0F5006F6C
:1009A00003DB40F2FF718D48C1808C48C088B0F5F0
:1009B000806F03DA4FF480618848C1800021884845
:1009C00080F82810854890F8240020F00201834820
:1009D00080F824100FE0824890F8260001280AD100
:1009E00081027E48C18090F8240020F00200801C23
:1009F0007A4981F82400022679494C31304600F0CA
:100A000039FA774890F84C0008B9012000E000203E
:100A1000734991F84E10012900D100E000210842ED
:100A200051D06F4890F84D00012822D16C48B0F8A1
:100A300050106A4801810089B0F5006F03DB40F275
:100A4000FF716648018165480089B0F5806F03DA5F
:100A50004FF48061614801810021614880F84E10A7
:100A60005E4890F8240020F004015C4880F82410CF
:100A700039E05B49B1F8500000EBD071491001F545
:100A800080618AB255490A8108460089B0F5006F35
:100A900003DB40F2FF715148018150480089B0F5F5
:100AA000806F03DA4FF480614C48018100214C488B
:100AB00080F84E10494890F8240020F0040147487F
:100AC00080F824100FE0464890F84C0001280AD125
:100AD00081024248018190F8240020F00400001DAA
:100AE0003E4981F8240003263D497231304600F02A
:100AF000C1F93B4890F8720008B9012000E00020DD
:100B0000374991F87410012900D100E00021084212
:100B100051D0334890F87300012822D13048B0F802
:100B200076102E4841814089B0F5006F03DB40F21A
:100B3000FF712A48418129484089B0F5806F03DA66
:100B40004FF48061254841810021254880F87410C8
:100B5000224890F8240020F00801204880F8241052
:100B600039E01F49B1F8760000EBD071491001F56A
:100B700080618AB219494A8108464089B0F5006F00
:100B800003DB40F2FF711548418114484089B0F5FC
:100B9000806F03DA4FF480611048418100211048D2
:100BA00080F874100D4890F8240020F008010B48DC
:100BB00080F824100FE00A4890F8720001280AD14A
:100BC00081020648418190F8240020F00800083096
:100BD000024981F8240004250DE00000D002002025
:100BE00038020020E9484E3F4FF480610A4820F85F
:100BF0001510681CC5B2102DF6DB0426012006492D
:100C0000091F0870304600F0C4F8BDE8F08110B547
:100C1000FFF7ECFD10BD0000D40200204549097823
:100C200009B945490860704701204249087070477A
:100C3000424A11684FF0E02252694FF0E0239B696D
:100C4000D21A4FF47A735A434FF0E0235B69B2FB38
:100C5000F3F201EB4103C3EBC11302EBC300704796
:100C600030B50446FFF7E4FF054600BFFFF7E0FF9D
:100C7000401BA042FAD330BD10B5044603E04FF448
:100C80007A70FFF7EDFF2000A4F10104F7D110BD49
:100C900070B5044604EB4400294951F8200004EBE8
:100CA0004401274A02EB81014860FFF7C1FF064675
:100CB00008F0C4F90546234908F092F804EB440112
:100CC0001F4A42F8210004EB44021D4B03EB820251
:100CD000516804EB440253F8220008F0C3FA04EB15
:100CE0004401174A02EB8101886004EB440011467D
:100CF00001EB8000806870BD10B5002404E0204640
:100D0000FFF7C6FF601CC4B2032CF8DB10BD10B5A2
:100D10000A480068401C094908600648007800B984
:100D200010BD0548006810B103480068804700BF47
:100D3000F6E7000008000020100000200C00002052
:100D4000F80200200024744900218E4A117091712C
:100D500011739174917000228A490A728A730A751C
:100D60000121884A517000228649CA714A73CA74A7
:100D70008A76002007E04FF4806282491C3121F816
:100D80001020411CC8B21028F5DB00217D4A1176E5
:100D900070472DE9F04106460C4614B90020BDE825
:100DA000F081012700F0E0F8052E5CD2DFE806F0C4
:100DB0000313233343002078724908706078487029
:100DC0000846007828B9A0788870A1886D4881808D
:100DD00000E0002749E020786A4988716178694815
:100DE000C171807928B9A17866480172A1884181D2
:100DF00000E0002739E02078624908736178614893
:100E00004173007B28B9A1785E488173A188018273
:100E100000E0002729E020785A4988746178594811
:100E2000C174807C28B9A17856480175A188C18217
:100E300000E0002719E0207852490876A17851484F
:100E4000817694F8241080F83C10002508E0201DDD
:100E500030F815104B481C3020F81510681CC5B22E
:100E6000102DF4DB01E0002700BF00BF00F083F885
:100E7000384694E72DE9F04106460C4614B90020A7
:100E8000BDE8F081012700F06FF8052E65D2DFE89C
:100E900006F0031527394B003A480078207039488E
:100EA000407860703748007830B936488078A07054
:100EB00034488188A18000E0002750E031488079E3
:100EC00020703048C07960702E48807930B92D4844
:100ED000007AA0702B484189A18000E000273EE005
:100EE0002848007B20702748407B60702548007BA5
:100EF00030B92448807BA0702248018AA18000E09C
:100F000000272CE01F48807C20701E48C07C607049
:100F10001C48807C30B91B48007DA0701948C18AEC
:100F2000A18000E000271AE01648007E20701548D6
:100F3000807EA070134890F83C0084F824000025BF
:100F400008E010481C3030F81510201D20F815104E
:100F5000681CC5B2102DF4DB01E0002700BF00BF04
:100F600000F009F838468BE700BFEFF31080064920
:100F7000086072B670470449086880F3108800BFA3
:100F8000704700001C0300201400002006E00C2124
:100F900000BF0A00A1F10103D9B2FAD10200A0F109
:100FA000010398B2F3D1704710B500F050FF322022
:100FB000FFF7ECFF00F04BFF3220FFF7E7FF00F0F8
:100FC00046FF3220FFF7E2FF00F041FF10BD10B5F1
:100FD000FFF7EAFF10BD000010B5284803F0FCFC45
:100FE00010BD10B5FFF7F8FF10BD10B5244803F091
:100FF000F3FC10BD10B5FFF7F8FF10BD10B5214888
:1010000003F0EAFC10BD10B5FFF7F8FF10BD10B5F6
:101010001D4803F0E1FC10BD10B5FFF7F8FF10BD4F
:1010200010B51A4803F0D8FC10BD10B5FFF7F8FF53
:1010300010BD10B5134803F04CFE10BD10B5FFF7FE
:10104000F8FF10BD10B50D4803F043FE10BD10B5FC
:10105000FFF7F8FF10BD10B5094803F03AFE10BDC8
:1010600010B5FFF7F8FF10BD10B5074803F031FECB
:1010700010BD10B5FFF7F8FF10BD0000AC15002043
:101080007815002044150020E015002014160020DB
:1010900010B5252005F0B8FA042005F0B8FA642050
:1010A00005F0B8FA05F0B9FA05F0BCFA10BD10B5B4
:1010B00005F0B3FA10BD000001210170417001710B
:1010C000FE4A4261002242720422C2600122027280
:1010D000FB4A0261FB4A82617047014641B10868E0
:1010E000006828B10868406810B10868008908B92C
:1010F000002070470120FCE710B50446F248844206
:1011000018D1FFF7EAFF002813D0EF480079012833
:101110000FD1ED4A1268917AEB4A126807231068E2
:10112000012205F008F9E84909680868012105F07D
:10113000D6F8C0E0E548844218D1FFF7CEFF00287A
:10114000F7D0E24800790128F3D1E04A1268917A99
:10115000DE4A126807231068012205F0ECF8DB492B
:1011600009680868012105F0BAF8A4E0D84884426B
:1011700018D1FFF7B2FF0028DBD0D548007901284D
:10118000D7D1D34A1268917AD14A126807231068DE
:10119000012205F0D0F8CE4909680868012105F060
:1011A0009EF888E0CB48844218D1FFF796FF0028CC
:1011B000BFD0C848007901287DD1C64A1268917A0B
:1011C000C44A126807231068012205F0B4F8C14927
:1011D00009680868012105F082F86CE0BE48844285
:1011E00018D1FFF77AFF002865D0BB4800790128A5
:1011F00061D1B94A1268917AB74A12680723106818
:10120000012205F098F8B44909680868012105F041
:1012100066F850E0B148844218D1FFF75EFF00281D
:1012200049D0AE480079012845D1AC4A1268917A7C
:10123000AA4A126807231068012205F07CF8A74922
:1012400009680868012105F04AF834E0A44884429E
:1012500017D1FFF742FF70B3A148007901282AD1C6
:101260009F4A1268917A9E4A1268072310680122E9
:1012700005F061F89A4909680868012105F02FF81E
:1012800019E09848844216D1FFF727FF98B1954896
:10129000007901280FD1934A1268917A914A126815
:1012A00007231068012205F046F88E49096808688E
:1012B000012105F014F810BD38B504462046FFF7AB
:1012C0000CFF08B9002038BD20680089ADF8000087
:1012D00000208DF8030021684868694604F04AFA46
:1012E0000120F0E72DE9F04389B005460C464FF4A4
:1012F000967805B11CB9002009B0BDE8F0837248AA
:10130000854203D178487049086039E06F488542CA
:1013100004D175480C306D49086031E06C48854255
:1013200004D1714818306A49086029E0694885424B
:1013300004D16D4824306749086021E06648854241
:1013400004D1694830306449086019E06348854237
:1013500004D165483C306149086011E0604885422D
:1013600004D1614848305E49086009E05D48854223
:1013700004D15D4854305B49086001E00020BBE7C0
:101380005148854227D120784F49087161784E48ED
:101390004171007901280FD14B480068006853491A
:1013A000884201D1701C86B24748006800685049E5
:1013B000884201D1781C87B2D4E90412A069CDE932
:1013C000001202904B48211D0EC906F0ADF8002016
:1013D0004949087058E13D48854227D120783B496A
:1013E0000871617839484171007901280FD1374877
:1013F000006800683D49884201D1701C86B23348BC
:10140000006800683A49884201D1781C87B2D4E963
:101410000412A069CDE9001202903848211D0EC9BE
:1014200006F082F80020364908702DE128488542F0
:1014300027D12078264908716178254841710079C3
:1014400001280FD12248006800682849884201D14C
:10145000701C86B21E48006800682549884201D188
:10146000781C87B2D4E90412A069CDE90012029079
:101470002448211D0EC906F057F8002022490870A3
:1014800002E11448854250D12078124908716178F0
:1014900010484171007901280FD10E48006800689A
:1014A0001249884201D1701C86B20A48006800685F
:1014B0000F49884201D1781C87B227E000007A44A6
:1014C0000000A0420AD7234048010020500100201C
:1014D00058010020600100206801002070010020F8
:1014E0007801002080010020E0000020002401405D
:1014F000002801405C0300208801002068040020CF
:101500008E0100207405002094010020D4E904120B
:10151000A069CDE900120290FE48211D0EC906F017
:1015200003F80020FC490870AEE0FC48854228D151
:101530002078FA4908716178F8484171F8480079D3
:1015400001280FD1F54800680068F649884201D1AA
:10155000701C86B2F14800680068F349884201D1E6
:10156000781C87B2D4E90412A069CDE90012029078
:10157000EE48211D0EC905F0D7FF0020EC49087088
:1015800082E0EC48854227D12078EA4908716178E9
:10159000E8484171007901280FD1E64800680068E9
:1015A000E049884201D1701C86B2E24800680068B8
:1015B000DD49884201D1781C87B2D4E90412A069C0
:1015C000CDE900120290DC48211D0EC905F0ACFFE8
:1015D0000020DA49087057E0D948854227D12078A1
:1015E000D74908716178D6484171007901280FD137
:1015F000D34800680068CB49884201D1701C86B28C
:10160000CF4800680068C849884201D1781C87B279
:10161000D4E90412A069CDE900120290C948211D45
:101620000EC905F081FF0020C74908702CE0C748AB
:10163000854227D12078C54908716178C348417136
:10164000007901280FD1C14800680068B549884277
:1016500001D1701C86B2BD4800680068B24988425A
:1016600001D1781C87B2D4E90421A069CDE9002119
:101670000290B748211D0EC905F056FF0020B5495C
:10168000087001E0002037E62846FFF715FE814686
:10169000012E49D10121480204F022FBF00304F09D
:1016A00086FA2968086804F087FD002004908DF808
:1016B00014008DF815004FF460200690002007906C
:1016C00001208DF820002968086804A904F09BFD1A
:1016D00029680868012104F0C2FD2968086804F03F
:1016E000E0FD00BF2968086804F0E0FD0028F9D19A
:1016F0002968086804F0E4FD00BF2968086804F060
:10170000E4FD0028F9D186480068006885498842D0
:1017100002D18348FFF7F0FC00BF5FEA0800A8F1A0
:1017200001011FFA81F8F8D1012F49D10121880266
:1017300004F0D6FAF80304F03AFA2968086804F0CD
:101740003BFD002004908DF814008DF815004FF437
:10175000602006900020079001208DF82000296865
:10176000086804A904F04FFD29680868012104F005
:1017700076FD2968086804F094FD00BF29680868B0
:1017800004F094FD0028F9D12968086804F098FD58
:1017900000BF2968086804F098FD0028F9D1604866
:1017A000006800686049884202D15D48FFF7A4FCE8
:1017B00000BF5FEA0800A8F101011FFA81F8F8D123
:1017C000484699E500B502461046FFF786FC08B981
:1017D000002000BD5248824203D1012050490871C7
:1017E00032E05D48824203D101205B4908712BE061
:1017F0005A48824203D101205849087124E05848D0
:10180000824203D10120564908711DE043488242BB
:1018100003D101204149087116E04648824203D1B4
:101820000120444908710FE04548824203D101205C
:101830004349087108E04548824203D101204349E9
:10184000087101E00020C4E70120C2E700B50246AC
:101850001046FFF742FC08B9002000BD3048824224
:1018600003D100202E49087132E03B48824203D167
:101870000020394908712BE03848824203D100200A
:101880003649087124E03648824203D100203449A9
:1018900008711DE02148824203D100201F490871D0
:1018A00016E02448824203D10020224908710FE04B
:1018B0002348824203D100202149087108E02348CF
:1018C000824203D100202149087101E00020C4E7D1
:1018D0000120C2E710B504460CB9002010BD104825
:1018E000844204D1012141711E4805F06BFE1A4863
:1018F000844204D1012141711B4805F063FE174861
:10190000844204D101214171184805F05BFE14485E
:1019100084422DE0800600209A010020680100200A
:101920004801002000240140002801408C070020CD
:10193000A00100207001002098080020A6010020CE
:1019400078010020A4090020AC01002080010020C3
:10195000B00A0020B20100205001002058010020F0
:10196000600100205C030020680400207405002052
:1019700004D101214171F64805F024FEF548844266
:1019800004D101214171F44805F01CFEF348844262
:1019900004D101214171F24805F014FEF14884425E
:1019A00004D101214171F04805F00CFEEF4884425A
:1019B00004D101214171EE4805F004FE01208DE7BC
:1019C00010B504460CB9002010BDEA48844204D189
:1019D00000214171E84805F0FDFDE848844204D14A
:1019E00000214171E64805F0F5FDE648844204D146
:1019F00000214171E44805F0EDFDE448844204D142
:101A000000214171D24805F0E5FDD248844204D15D
:101A100000214171D04805F0DDFDD048844204D159
:101A200000214171CE4805F0D5FDCE48844204D155
:101A300000214171CC4805F0CDFDCC48844204D151
:101A400000214171CA4805F0C5FD0120BCE7F8B589
:101A50000446CF48844220D10078012817D1C648D7
:101A60000078012814D1CA49488807F0E7FA0646E9
:101A70004FF07E5107F02AFB05466A462946BE48CC
:101A800005F0B0FD009807F0A1FAC1498880FFE099
:101A9000BF484088BE498880FAE0BE48844220D1D1
:101AA00000780128F3D1B6480078012814D1B9494B
:101AB000488807F0C3FA06464FF07E5107F006FB50
:101AC00005466A462946AE4805F08CFD009807F0A9
:101AD0007DFAB0498880DBE0AE484088AD49888017
:101AE000D6E0AD48844220D100780128CFD1A64865
:101AF0000078012814D1A849488807F09FFA0646C3
:101B00004FF07E5107F0E2FA05466A4629469E48A4
:101B100005F068FD009807F059FA9F498880B7E002
:101B20009D4840889C498880B2E09C48844220D1EE
:101B300000780128ABD186480078012814D1974954
:101B4000488807F07BFA06464FF07E5107F0BEFA50
:101B500005466A4629467E4805F044FD009807F090
:101B600035FA8E49888093E08C4840888B4988807C
:101B70008EE08B48844220D10078012887D17648B6
:101B80000078012814D18649488807F057FA06469C
:101B90004FF07E5107F09AFA05466A4629466E488C
:101BA00005F020FD009807F011FA7D4988806FE06C
:101BB0007B4840887A4988806AE07A48844220D10C
:101BC0000078012864D166480078012814D175494D
:101BD000488807F033FA06464FF07E5107F076FA50
:101BE00005466A4629465E4805F0FCFC009807F069
:101BF000EDF96C4988804BE06A48408869498880E3
:101C000046E06948844220D10078012840D15648F6
:101C10000078012814D16449488807F00FFA064675
:101C20004FF07E5107F052FA05466A4629464E4863
:101C300005F0D8FC009807F0C9F95B49888027E0D7
:101C4000594840885849888022E0584884421FD12A
:101C5000007801281CD146480078012814D1534946
:101C6000488807F0EBF906464FF07E5107F02EFA50
:101C700005466A4629463E4805F0B4FC009807F040
:101C8000A5F94A49888003E0484840884749888048
:101C9000F8BD70B5044621680868022104F090FC84
:101CA000012854D12168086804F0ACFB054640F6D1
:101CB000FF70854201DB054602E0002D00DC0025B7
:101CC00000BF00BFEFF310803949086072B600BF53
:101CD0002848844205D101202D49087008464580D6
:101CE00070E02648844205D101202A490870084640
:101CF000458067E02348844205D1012026490870C9
:101D0000084645805EE02148844205D101202349F0
:101D100008700846458055E00E48844205D10120F0
:101D20001F490870084645804CE00C48844205D1A4
:101D300001201C4908700846458043E00948844258
:101D400038D1012018490870084645803AE03FE044
:101D500080060020680100208C0700207001002010
:101D60009808002078010020A409002080010020AC
:101D7000B00A0020480100205C0300205001002030
:101D80006804002058010020740500206001002034
:101D9000880100208E010020940100209A0100207B
:101DA000A0010020A6010020AC010020B20100200B
:101DB000B8010020FE48844204D10120FD4908708A
:101DC0000846458021680868022104F002FC36E0DC
:101DD000F948844203D10020F84908702FE0F84800
:101DE000844203D10020F749087028E0F648844275
:101DF00003D10020F549087021E0F548844203D161
:101E00000020F44908701AE0F348844203D100200E
:101E1000F249087013E0F248844203D10020F149EE
:101E200008700CE0F048844203D10020EF490870AC
:101E300005E0DF48844202D10020DE49087000BF7F
:101E4000EB49086880F3108800BF00BF70BD10B573
:101E5000E84903C94FF0FF3358405940084303D1C4
:101E60000021E44A11605160042009287ED2DFE895
:101E700000F07D051A427ECCFDFCFB00042200230D
:101E8000DC4903C905F08EFC00214A404B401A434F
:101E900008D1C948FFF7FDFEC748FFF72DF9C7482D
:101EA000FFF7D5FDD1E204220023D24903C905F092
:101EB00079FC00214A404B401A4308D1BE48FFF745
:101EC000E8FEBF48FFF718F9BC48FFF7C0FD042241
:101ED0000023C84903C905F065FC01214A401A43A3
:101EE00008D1B748FFF7D5FEB348FFF705F9B54865
:101EF000FFF7ADFDA9E204220023BE4903C905F0A6
:101F000051FC00214A404B401A4308D1AA48FFF730
:101F1000C0FEAB48FFF7F0F8A848FFF798FD042291
:101F20000023B44903C905F03DFC01214A401A438E
:101F300008D1A348FFF7ADFEA348FFF7DDF8A1489D
:101F4000FFF785FD04220023AA4903C905F02AFCF6
:101F500002214A401A4308D19B48FFF79AFE96484F
:101F6000FFF7CAF89948FFF772FD6EE26CE20422AF
:101F70000023A04903C905F015FC00214A404B404D
:101F80001A4308D18C48FFF784FE8D48FFF7B4F858
:101F90008A48FFF75CFD04220023964903C905F037
:101FA00001FC01214A401A4308D18548FFF771FE20
:101FB0008548FFF7A1F88348FFF749FD0422002375
:101FC0008C4903C905F0EEFB02214A401A4308D1AF
:101FD0007D48FFF75EFE7E48FFF78EF87B48FFF7EF
:101FE00036FD04220023834903C905F0DBFB0321EE
:101FF0004A401A4308D17648FFF74BFE6E48FFF778
:102000007BF87448FFF723FD1FE20422002379497F
:1020100003C905F0C7FB00214A404B401A4308D1D1
:102020006548FFF736FE6648FFF766F86348FFF736
:102030000EFD042200236F4903C905F0B3FB012103
:102040004A401A4308D15E48FFF723FE5E48FFF777
:1020500053F85C48FFF7FBFC04220023654903C9E1
:1020600005F0A0FB022102E054E1CCE032E04A405E
:102070001A4308D15448FFF70CFE5548FFF73CF8C7
:102080005248FFF7E4FC042200235A4903C905F033
:1020900089FB03214A401A4308D14D48FFF7F9FD57
:1020A0004D48FFF729F84B48FFF7D1FC04220023E5
:1020B000504903C905F076FB04214A401A4308D170
:1020C0004548FFF7E6FD3C48FFF716F84348FFF7A1
:1020D000BEFCBAE104220023464903C905F062FBB5
:1020E00000214A404B401A4308D13348FFF7D1FD45
:1020F0003348FFF701F83148FFF7A9FC0422002319
:102100003C4903C905F04EFB01214A401A4308D15E
:102110002B48FFF7BEFD2C48FEF7EEFF2948FFF7DE
:1021200096FC04220023334903C905F03BFB02213E
:102130004A401A4308D12448FFF7ABFD2448FEF774
:10214000DBFF2248FFF783FC04220023294903C94F
:1021500005F028FB03214A401A4308D11C48FFF729
:1021600098FD1D48FEF7C8FF1A48FFF770FC0422CF
:102170000023204903C905F015FB04214A401A43F6
:1021800008D11548FFF785FD1548FEF7B5FF134840
:10219000FFF75DFC04220023164903C905F002FB8A
:1021A00005214A401A432DD10D48FFF772FD23E067
:1021B00080010020B2010020480100208801002099
:1021C000500100208E0100205801002094010020C1
:1021D000600100209A01002068010020A001002079
:1021E00070010020A601002078010020AC01002031
:1021F000B801002040010020F748FEF77DFFF748B6
:10220000FFF725FC21E104220023F54903C905F06D
:10221000C9FA00214A404B401A4308D1EE48FFF763
:1022200038FDF048FEF768FFEF48FFF710FC042286
:102230000023EB4903C905F0B5FA01214A401A43CE
:1022400008D1E848FFF725FDE848FEF755FFE848C4
:10225000FFF7FDFB04220023E14903C905F0A2FAC0
:1022600002214A401A4308D1E048FFF712FDE14835
:10227000FEF742FFE048FFF7EAFB04220023D849BB
:1022800003C905F08FFA03214A401A4308D1D948FF
:10229000FFF7FFFCD948FEF72FFFD948FFF7D7FB20
:1022A00004220023CE4903C905F07CFA04214A40E8
:1022B0001A4308D1D148FFF7ECFCD248FEF71CFFC7
:1022C000D148FFF7C4FB04220023C54903C905F028
:1022D00069FA05214A401A4308D1CA48FFF7D9FCD8
:1022E000CA48FEF709FFBD48FFF7B1FB04220023EF
:1022F000BB4903C905F056FA06214A401A4308D1E2
:10230000C248FFF7C6FCB448FEF7F6FEC048FFF728
:102310009EFB9AE004220023B14903C905F042FA6A
:1023200000214A404B401A4308D1AB48FFF7B1FCAB
:10233000AC48FEF7E1FEAC48FFF789FB042200231E
:10234000A74903C905F02EFA01214A401A4308D1D2
:10235000A448FFF79EFCA548FEF7CEFEA448FFF771
:1023600076FB042200239E4903C905F01BFA0221D3
:102370004A401A4308D19D48FFF78BFC9D48FEF761
:10238000BBFE9D48FFF763FB04220023944903C969
:1023900005F008FA03214A401A4308D19548FFF78F
:1023A00078FC9648FEF7A8FE9548FFF750FB0422FC
:1023B00000238B4903C905F0F5F904214A401A436B
:1023C00008D18E48FFF765FC8E48FEF795FE8E48D3
:1023D000FFF73DFB04220023814903C905F0E2F920
:1023E00005214A401A4308D18648FFF752FC874826
:1023F000FEF782FE7948FFF72AFB04220023784982
:1024000003C905F0CFF906214A401A4308D17F4895
:10241000FFF73FFC7F48FEF76FFE7D48FFF717FB95
:10242000042200236E4903C905F0BCF907214A4084
:102430001A4308D17748FFF72CFC6748FEF75CFE8B
:102440007548FFF704FB00E000BF00BF6448D0E917
:1024500000305A1C40F100006149C1E9002010BD64
:1024600002460AB9002070475B4882420ED15E489E
:102470000078012807D108705B48808848800020D8
:10248000594B187082E0002008707FE05548824266
:102490000ED157480078012807D108705448808829
:1024A00048800020524B187070E0002008706DE0EA
:1024B0004E4882420ED150480078012807D108705A
:1024C0004D488088488000204B4B18705EE000200B
:1024D00008705BE0474882420ED1494800780128E5
:1024E00007D108704648808848800020444B187007
:1024F0004CE00020087049E0404882420ED142483A
:102500000078012807D108703F4880884880002063
:102510003D4B18703AE00020087037E0394882429D
:102520000ED133480078012807D108702B488088E5
:1025300048800020294B187028E00020087025E012
:10254000324882420ED132480078012807D1087003
:102550002F488088488000202D4B187016E00020FE
:10256000087013E02B4882420ED1214800780128E0
:1025700007D108702848808848800020264B1870B2
:1025800004E00020087001E000206CE701206AE709
:1025900037B504462046FEF7A0FD08B900203EBD31
:1025A0000D48844201D1012000E000202179012959
:1025B00000D100E00021084232D09DF804101748F5
:1025C000029A05F08FF89DF80400002803D19DF8C9
:1025D000081001484171E5E048010020A6010020F3
:1025E00040010020500100208801002058010020F7
:1025F0008E0100206001002094010020680100206D
:102600009A01002070010020A00100207801002024
:10261000AC01002080010020B20100205C030020FA
:102620006148844201D1012000E000202179012984
:1026300000D100E0002108420ED09DF804105B4854
:10264000029A05F04FF89DF804000028C3D19DF8C8
:10265000081055484171A5E05548844201D1012038
:1026600000E000202179012900D100E0002108428A
:102670000ED09DF804104F48029A05F033F89DF8EB
:1026800004000028A7D19DF808104948417189E04D
:102690004948844201D1012000E00020217901292C
:1026A00000D100E0002108420ED09DF804104348FC
:1026B000029A05F017F89DF80400002872D19DF8E1
:1026C00008103D4841716DE03D48844201D1012030
:1026D00000E000202179012900D100E0002108421A
:1026E0000DD09DF804103748029A04F0FBFF9DF8C6
:1026F0000400C8BB9DF808103148417152E03248CF
:10270000844201D1012000E000202179012900D17B
:1027100000E0002108420DD09DF804102B48029AD9
:1027200004F0E0FF9DF80400F0B99DF80810264879
:10273000417137E02648844201D1012000E00020A9
:102740002179012900D100E0002108420DD09DF837
:1027500004102048029A04F0C5FF9DF8040018B93F
:102760009DF808101A4841711CE01B48844201D1B1
:10277000012000E000202179012900D100E00021A2
:1027800008420DD09DF804101448029A04F0AAFFE4
:102790009DF8040030B99DF808100F48417101E020
:1027A0000020FCE60120FAE6500100206804002029
:1027B00058010020740500206001002080060020E0
:1027C000680100208C07002070010020980800207C
:1027D00078010020A409002080010020B00A002018
:1027E00070B58CB004460CB9012000E000202179BE
:1027F00009B9012100E00021084302D000200CB0FB
:1028000070BD02A9206802F026F80646012E70D19C
:10281000FA48844237D19DF808200DF10901F848A3
:1028200003F06EFF0546022D04D101A9F44803F020
:10283000F2FF0546022D09D19DF80400192805DB99
:10284000EE48C06A10B1ED49C86A8047ED4920687A
:1028500002F076F8EB480078012813D1E948407877
:10286000192803D1002184F8281008E0E5484078B1
:10287000242803D1012184F8281000E0002600203C
:10288000E0490870EFE0E048844238D19DF8082024
:102890000DF10901DD4803F033FF0546022D04D197
:1028A00001A9DA4803F0B7FF0546022D09D19DF8CA
:1028B0000400192805DBD448C06A10B1D249C86A9F
:1028C0008047D349206802F03BF8D14800780128BE
:1028D000D8D1CF484078192803D1002184F8281096
:1028E00009E0CB484078242804D1012184F828103D
:1028F00001E0B7E000260020C5490870B3E0C548F4
:10290000844237D19DF808200DF10901C24803F037
:10291000F7FE0546022D04D101A9BF4803F07BFF55
:102920000546022D09D19DF80400242805DBB9488D
:10293000C06A10B1B749C86A8047B849206801F039
:10294000FFFFB648007801289CD1B4484078192888
:1029500003D1002184F8281008E0B04840782428EA
:1029600003D1012184F8281000E000260020AB49A3
:10297000087078E0AA48844237D19DF808200DF10C
:102980000901A84803F0BCFE0546022D04D101A9A7
:10299000A44803F040FF0546022D09D19DF804002C
:1029A000242805DB9E48C06A10B19D49C86A80474B
:1029B0009D49206801F0C4FF9B480078012852D14E
:1029C00099484078192803D1002184F8281008E09C
:1029D00095484078242803D1012184F8281000E08C
:1029E00000260020904908703DE09048844237D18D
:1029F0009DF808200DF109018D4803F081FE054680
:102A0000022D04D101A98A4803F005FF0546022DD5
:102A100009D19DF80400242805DB8448C06A10B160
:102A20008249C86A80478349206801F089FF81484C
:102A30000078012817D17F484078192803D1002158
:102A400084F8281008E07B484078242803D101212D
:102A500084F8281000E0002600207649087002E083
:102A6000002600E000263046C9E610B56348FFF7AF
:102A7000B7FE10BD10B56448FFF7B2FE10BD10B52B
:102A80006448FFF7ADFE10BD10B56548FFF7A8FE1E
:102A900010BD10B56548FFF7A3FE10BD2DE9F0414C
:102AA000064600275548864231D101F074FB624842
:102AB00090F8008001F076FB0125002408E008EA88
:102AC0000500A84200D105E06806050E601CC4B2EE
:102AD000082CF4DB00BF082C17DA04EB840202EBAD
:102AE0004412564BD118306801F04CFF0746012FB5
:102AF00009D101F050FB50480078A8434E490870B6
:102B000001F050FB02E1002700E10027FEE03E4813
:102B1000864231D101F03FFB494890F8008001F036
:102B200041FB0125002408E008EA0500A84200D185
:102B300005E06806050E601CC4B2082CF4DB00BF7B
:102B4000082C17DA04EB840202EB44123D4BD11837
:102B5000306801F017FF0746012F09D101F01BFB78
:102B600037480078A8433649087001F01BFBCDE0D8
:102B70000027CBE00027C9E02648864231D101F08A
:102B80000AFB314890F8008001F00CFB012500247D
:102B900008E008EA0500A84200D105E06806050E35
:102BA000601CC4B2082CF4DB00BF082C17DA04EB5D
:102BB000840202EB4412254BD118306801F0E2FE8A
:102BC0000746012F09D101F0E6FA1F480078A84313
:102BD0001D49087001F0E6FA98E0002796E000270A
:102BE00094E00F4886425DD101F0D5FA184890F87C
:102BF000008001F0D7FA0125002434E0BC0B00204E
:102C000088120020BC010020F00B0020941200204C
:102C1000BE010020240C0020A0120020C0010020D2
:102C2000580C0020AC120020C20100208C0C0020A7
:102C3000B8120020C4010020CC010020C00C0020EC
:102C4000D0010020E80D0020D4010020100F00204A
:102C5000D801002008EA0500A84200D105E0680676
:102C6000050E601CC4B2082CF4DB00BF082C17DA78
:102C700004EB840202EB4412FE4BD118306801F0E1
:102C800081FE0746012F09D101F085FAFA48007844
:102C9000A843F949087001F085FA37E0002735E0CC
:102CA000002733E0F548864230D101F074FAF44849
:102CB00090F8008001F076FA0125002408E008EA87
:102CC0000500A84200D105E06806050E601CC4B2EC
:102CD000082CF4DB00BF082C17DA04EB840202EBAB
:102CE0004412E84BD118306801F04CFE0746012F22
:102CF00009D101F050FAE2480078A843E049087091
:102D000001F050FA02E0002700E000273846BDE855
:102D1000F08110B5DC48FFF7C1FEDC48007828B927
:102D2000D948006B10B1D849086B804710BD10B569
:102D3000D748FFF7B3FED748007828B9D448006BCE
:102D400010B1D349086B804710BD10B5D248FFF7CA
:102D5000A5FED248007828B9CF48006B10B1CE4903
:102D6000086B804710BD10B5CD48FFF797FEC248ED
:102D7000007828B9CA48006B10B1C949086B804770
:102D800010BD10B5BD48FFF789FEBD48007828B9D1
:102D9000BA48006B10B1B949086B804710BD0121DA
:102DA0000170002141600C21417203210175002155
:102DB000417541700172C1600161704770B5044690
:102DC0000D4604B10DB9002070BD287820716978D6
:102DD00084F82910297A84F82810E968E1622969C1
:102DE000216304F1080001F0A5FA2079012803D13C
:102DF00001212172617202E0002121726172A949F0
:102E0000E1604FF48061A1828900218249006182E2
:102E1000697AE1829C48844209D19B4968680860CC
:102E2000AFF2B9312162AFF21511616235E0984815
:102E3000844209D1964968680860AFF2C7312162BF
:102E4000AFF21511616228E09348844209D192499A
:102E500068680860AFF2D9312162AFF21111616286
:102E60001BE08F48844209D18D4968680860AFF241
:102E7000E7312162AFF2111161620EE07F488442B6
:102E800009D17E4968680860AFF2F9312162AFF27A
:102E90000D11616201E0002096E704F1080120684D
:102EA00001F060FA7848844208D17F4A80217F4847
:102EB00003F0CAFB00207549087031E07448844271
:102EC00008D17B4A80217B4803F0BEFB002071497A
:102ED000087025E07048844208D1774A80217748FD
:102EE00003F0B2FB00206D49087019E06C48844281
:102EF00008D1734A8021734803F0A6FB00205E4985
:102F000008700DE05D48844208D16F4A80216F4807
:102F100003F09AFB00205A49087001E0002053E7B3
:102F2000012051E710B504460CB9002010BD012066
:102F30002071206801F067FC0120F7E710B5044616
:102F40000CB9002010BD00202071206801F06FFC3A
:102F50000120F7E710B5024609B9002010BD087836
:102F6000192804D00878242801D00020F6E7087E2C
:102F700082F822008C78C87844EA0020C0F30A0066
:102F8000508008794401C87844EAE000C0F30A049C
:102F9000948088798402487944EA8004087944EA74
:102FA000A010C0F30A04D480C879C401887944EA27
:102FB0006000C0F30A041481087A0401C87944EA65
:102FC0002010C0F30A045481887A4402487A44EA03
:102FD0004004087A44EAE010C0F30A049481C87AF5
:102FE0008401887A44EAA000C0F30A04D481087BF3
:102FF000C400C87A44EA601010824C7B887B44EAA3
:103000000020C0F30A045482C87B4401887B44EA50
:10301000E000C0F30A049482487C8402087C44EAFD
:103020008004C87B44EAA010C0F30A04D482887CE0
:10303000C401487C44EA6000C0F30A041483C87CDD
:103040000401887C44EA2010C0F30A045483487DBC
:103050004402087D44EA4004C87C44EAE010C0F31E
:103060000A049483887D8401487D44EAA000C0F36B
:103070000A042DE038100020D80100208C0C00201C
:10308000DC01002060110020BC0B0020CC010020DE
:10309000F00B0020D0010020240C0020D4010020DF
:1030A000580C0020A0860100C412002088120020C5
:1030B0004413002094120020C4130020A01200200A
:1030C00044140020AC120020C4140020B8120020C8
:1030D000D483C87DC400887D44EA601010840878D9
:1030E00024287DD1508800EB80004400887EC0F306
:1030F000021004EB400491F82200C0F38010204439
:103100005080908800EB80004400887E00F007002B
:1031100004EB400491F82200C0F34010204490805A
:10312000D08800EB80004400C87EC0F3021004EB9E
:10313000400491F82200C0F300102044D080108990
:1031400000EB80004400C87E00F0070004EB400460
:1031500091F82200C0F3800020441081508900EBD8
:1031600080004400087FC0F3021004EB400491F893
:103170002200C0F3400020445081908900EB800081
:103180004400087F00F0070004EB400491F822009F
:1031900000F0010020449081D08900EB80004400C1
:1031A000487FC0F3021004EB400491F82300C0F301
:1031B00080102044D081108A00EB80004400487FBA
:1031C00000F0070004EB400491F82300C0F3401026
:1031D00020441082508A00EB80004400887F00E089
:1031E00076E0C0F3021004EB400491F82300C0F332
:1031F000001020445082908A00EB80004400887FB9
:1032000000F0070004EB400491F82300C0F38000B5
:1032100020449082D08A00EB80004400C87FC0F335
:10322000021004EB400491F82300C0F34000204456
:10323000D082108B00EB80004400C87F00F00700B4
:1032400004EB400491F8230000F0010020441083B7
:10325000508B00EB800044002020405CC0F3021043
:1032600004EB400491F82400C0F380102044508304
:10327000908B00EB800044002020405C00F00700B1
:1032800004EB400491F82400C0F3401020449083E4
:10329000D08B00EB8000440091F82100C0F30210B5
:1032A00004EB400491F82400C0F300102044D083C4
:1032B000108C00EB8000440091F8210000F0070022
:1032C00004EB400491F82400C0F3800020441084F3
:1032D0000878192818D1002313E0901C30F8130047
:1032E000C0F30A04901C20F8134030F81300B0F526
:1032F000006F04DB40F2FF74901C20F81340581C50
:10330000C3B2102BE9DB1DE00878242818D1002374
:1033100013E0901C30F81300C0F30E04901C20F84A
:10332000134030F81300B0F5A04F04DB44F6FF74EF
:10333000901C20F81340581CC3B2102BE9DB01E0AD
:1033400000200BE6012009E6F0B504460F461546BD
:103350000CB9012000E00020217909B9012100E029
:103360000021084301D00020F0BD94F82900287006
:1033700039462846FFF7EEFD064626B9002184F8B7
:103380002910002028703046EEE7FEB504460E46B0
:10339000002000900CB9012000E00020217909B93B
:1033A000012100E0002108430EB9012100E00021C5
:1033B000084301D00020FEBDF748844278D101AA1D
:1033C0000F21F64803F0DDFA0546022D05D19DF8E0
:1033D0000410F24803F05CFA09E09DF80410EF488D
:1033E00003F056FA002184F829100020E3E769462B
:1033F000EA4803F010FA0546032D04D1002184F8B1
:1034000029100020D7E794F8280028B99DF800007B
:10341000192801DA0020CEE794F82800012805D108
:103420009DF80000242801DA0020C4E702AA182130
:10343000DA4803F0ECFA0546032D04D1002184F8A4
:1034400029100020B7E79DF8080090BB94F82800E9
:1034500090B91922711CD14803F04AFA0546032D90
:1034600004D1002184F829100020A4E7192030702D
:10347000012184F8291089E294F828000128FAD162
:103480006946C64803F0C7F905469DF800002428A0
:1034900016DB022D14D12422711CC04803F028FA37
:1034A0000546032D06D1002184F82910002082E76B
:1034B00014E00AE024203070012184F8291065E22C
:1034C000002184F82910002075E71921B34803F082
:1034D000DFF9002184F8291000206CE7B04884420D
:1034E00078D101AA0F21AF4803F04BFA0546022D0F
:1034F00005D19DF80410AB4803F0CAF909E09DF826
:103500000410A84803F0C4F9002184F82910002011
:1035100051E76946A34803F07EF90546032D04D11F
:10352000002184F82910002045E794F8280028B9E4
:103530009DF80000192801DA00203CE794F82800E3
:10354000012805D19DF80000242801DA002032E787
:1035500002AA1821934803F05AFA0546032D04D114
:10356000002184F82910002025E79DF8080090BB71
:1035700094F8280090B91922711C8A4803F0B8F910
:103580000546032D04D1002184F82910002012E7FC
:1035900019203070012184F82910F7E194F82800EF
:1035A00001288CD169467F4803F035F905469DF81E
:1035B0000000242816DB022D14D12422711C794826
:1035C00003F096F90546032D06D1002184F8291051
:1035D0000020F0E614E00AE024203070012184F895
:1035E0002910D3E1002184F829100020E3E61921F5
:1035F0006C4803F04DF9002184F829100020DAE628
:103600006948844278D101AA0F21684803F0B9F9CA
:103610000546022D05D19DF80410644803F038F9E1
:1036200009E09DF80410614803F032F9002184F8A4
:1036300029100020BFE669465C4803F0ECF8054617
:10364000032D04D1002184F829100020B3E694F85A
:10365000280028B99DF80000192801DA0020AAE600
:1036600094F82800012805D19DF80000242801DAEB
:103670000020A0E602AA18214C4803F0C8F905462C
:10368000032D04D1002184F82910002093E69DF831
:10369000080090BB94F8280090B91922711C434887
:1036A00003F026F90546032D04D1002184F82910E2
:1036B000002080E619203070012184F8291065E18E
:1036C00094F8280001288CD16946384803F0A3F803
:1036D00005469DF80000242816DB022D14D1242273
:1036E000711C324803F004F90546032D06D1002170
:1036F00084F8291000205EE614E00AE024203070EF
:10370000012184F8291041E1002184F829100020CA
:1037100051E61921254803F0BBF8002184F829104F
:10372000002048E6224884427ED101AA0F21214888
:1037300003F027F90546022D05D19DF804101D4818
:1037400003F0A6F809E09DF804101A4803F0A0F869
:10375000002184F8291000202DE66946154803F061
:103760005AF80546032D04D1002184F829100020C1
:1037700021E694F8280028B99DF80000192801DAFC
:10378000002018E694F82800012815D19DF80000C3
:10379000242811DA00200EE6BC0B0020881200203D
:1037A000F00B002094120020240C0020A012002016
:1037B000580C0020AC12002002AA1821F94803F08E
:1037C00026F90546032D04D1002184F82910002094
:1037D000F1E59DF8080040BB94F8280090B9192243
:1037E000711CF04803F084F80546032D04D1002134
:1037F00084F829100020DEE519203070012184F8BA
:103800002910C3E094F8280001281FD16946E54833
:1038100003F001F805469DF80000242817DB022D6F
:1038200015D12422711C01E01FE015E0DD4803F0F2
:103830005FF80546032D04D1002184F829100020EB
:10384000B9E524203070012184F829109EE0002180
:1038500084F829100020AEE51921D24803F018F8A9
:10386000002184F829100020A5E5CF4884425BD1CF
:1038700001AA0F21CD4803F084F80546022D05D199
:103880009DF80410C94803F003F809E09DF80410FE
:10389000C64802F0FDFF002184F8291000208AE5C7
:1038A0006946C24802F0B7FF0546032D04D1002146
:1038B00084F8291000207EE594F8280028B99DF8A6
:1038C0000000192801DA002075E594F82800012885
:1038D00005D19DF80000242801DA00206BE502AA3A
:1038E0001821B24803F093F80546032D04D10021B6
:1038F00084F8291000205EE59DF8080088BB94F844
:10390000280090B91922711CA84802F0F1FF054661
:10391000032D04D1002184F8291000204BE5192043
:103920003070012184F8291030E094F82800012833
:103930002CD169469D4802F06EFF05469DF80000B7
:10394000242815DB022D13D12422711C974802F084
:10395000CFFF0546032D05D1002184F82910002052
:1039600029E50AE024203070012184F829100DE0B7
:10397000002184F8291000201DE519218B4802F050
:1039800087FF002184F82910002014E5012012E5AA
:10399000F0B58BB004460E460CB9012000E00020C3
:1039A000217909B9012100E00021084302D000205B
:1039B0000BB0F0BD7E48844205D10AA97D4802F0D3
:1039C0002AFF054625E07C48844205D10AA97B48A8
:1039D00002F021FF05461CE07948844205D10AA97E
:1039E000784802F018FF054613E07748844205D175
:1039F0000AA96C4802F00FFF05460AE06A488442B3
:103A000005D10AA9694802F006FF054601E0002039
:103A1000CEE7022D22D19DF828001A281EDB694628
:103A20002046FFF7B2FC0746012F1CD194F829006D
:103A3000012818D1324669462046FFF785FC012847
:103A400006D1002184F8291094F8280070700AE04B
:103A5000002184F829100020307004E0002184F84F
:103A60002910002030700120A2E770B504460D46F1
:103A70000CB9012000E000200DB9012100E0002177
:103A8000084301D0002070BD287820702278691C7E
:103A9000601C03F0FEFE0120F5E72DE9F047044627
:103AA00088460CB1207910B90020BDE8F08798F85D
:103AB0000000192803D1002184F8281006E098F8A6
:103AC0000000242802D1012184F8281000F063FBB3
:103AD0003748844202D13D4890F8009036488442ED
:103AE00002D13B4890F800903548844202D13948D1
:103AF00090F800903448844202D1374890F8009002
:103B00002948844202D1354890F8009000F04AFBE1
:103B10000127002608E027EA0900B84200D105E0A5
:103B20007806070E701CC6B2082EF4DB00BF082E04
:103B30006EDA1F4884420AD106EB860101EB46117A
:103B4000274A88184146FFF790FF054661E01A486A
:103B500084420AD106EB860101EB4611214A8818FE
:103B60004146FFF782FF054653E0154884420AD1DB
:103B700006EB860101EB46111B4A88184146FFF708
:103B800074FF054645E01048844231D106EB8601BA
:103B900001EB4611154A88184146FFF766FF0546B6
:103BA00037E00000AC1200208C0C0020B81200207E
:103BB000BC0B002088120020F00B00209412002083
:103BC000240C0020A0120020580C0020CC01002062
:103BD000D0010020D4010020D8010020DC01002009
:103BE000C00C0020E80D0020100F0020381000202D
:103BF000FE4884420AD106EB860101EB4611FC4ADD
:103C000088184146FFF731FF054602E0002500E035
:103C10000025012D31D100F0BEFAF648844205D1CD
:103C2000F54800783843F449087024E0F3488442AA
:103C300005D1F34800783843F14908701BE0F1489A
:103C4000844205D1F04800783843EF49087012E00B
:103C5000EE48844205D1EE4800783843EC490870BC
:103C600009E0E248844205D1EA4800783843E9494E
:103C7000087000E0002500F095FA012D03D12046E0
:103C8000FEF70CFF054628460FE730B58CB003461B
:103C900013B900200CB030BD1878012802D12420BF
:103CA000087001E0192008700F20487000244C763D
:103CB00093F822400C760878242829D1002224E0A9
:103CC000981C30F8120004AC24F8120004A830F854
:103CD0001200B0F5A04F03DB44F6FF7024F8120089
:103CE00004A830F812000A2490FBF4F504FB150038
:103CF000C0B20DF8020004A830F8120090FBF4F0F6
:103D000004AC24F81200501CC2B2102AD8DB1BE00D
:103D10000878192816D1002211E0981C30F81200FA
:103D200004AC24F8120004A830F81200B0F5006FBB
:103D300003DB40F2FF7024F81200501CC2B2102ABC
:103D4000EBDB01E00020A5E7087819287ED1BDF85B
:103D500010008870BDF810000012BDF8124040EA53
:103D6000C400C870BDF812004011BDF8144040EA0C
:103D700084100871BDF81400C0F387044C71BDF8BD
:103D800014008012BDF8164040EA44008871BDF866
:103D90001600C011BDF8184040EA0410C871BDF803
:103DA00018000011BDF81A4040EAC4100872BDF8AE
:103DB0001A00C0F347044C72BDF81A004012BDF857
:103DC0001C4040EA84008872BDF81C008011BDF8D8
:103DD0001E4040EA4410C872BDF81E00C0F3C7047C
:103DE0000C73BDF820004873BDF820000012BDF828
:103DF000224040EAC4008873BDF822004011BDF89B
:103E0000244040EA8410C873BDF82400C0F387043E
:103E10000C74BDF824008012BDF8264040EA44002E
:103E20004874BDF82600C011BDF8284040EA0410CF
:103E30008874BDF828000011BDF82A4040EAC4107B
:103E4000C874BDF82A00C0F3470400E016E00C7502
:103E5000BDF82A004012BDF82C4040EA84004875A5
:103E6000BDF82C008011BDF82E4040EA4410887542
:103E7000BDF82E00C0F3C704CC7562E10878242891
:103E80007ED1BDF810008870BDF810000012BDF89A
:103E9000124040EAC400C870BDF812004011BDF8DD
:103EA000144040EA84100871BDF81400C0F3870480
:103EB0004C71BDF814008012BDF8164040EA440071
:103EC0008871BDF81600C011BDF8184040EA041012
:103ED000C871BDF818000011BDF81A4040EAC410BE
:103EE0000872BDF81A00C0F347044C72BDF81A00FE
:103EF0004012BDF81C4040EA84008872BDF81C00E6
:103F00008011BDF81E4040EA4410C872BDF81E0082
:103F1000C0F3C7040C73BDF820004873BDF820003F
:103F20000012BDF8224040EAC4008873BDF82200A8
:103F30004011BDF8244040EA8410C873BDF8240045
:103F4000C0F387040C74BDF824008012BDF826402D
:103F500040EA44004874BDF82600C011BDF828406E
:103F600040EA04108874BDF828000011BDF82A400A
:103F700040EAC410C874BDF82A00C0F3470400E04A
:103F8000DDE00C75BDF82A004012BDF82C4040EA77
:103F900084004875BDF82C008011BDF82E4040EA21
:103FA00044108875BDF82E00C0F3C704CC759DF889
:103FB0000000702404EAC0009DF8014040EA640457
:103FC0008C769DF80200702404EAC0009DF803403E
:103FD00040EA6404CC769DF80400702404EAC00032
:103FE0009DF8054040EA64040C7715E08C0C002035
:103FF00060110020BC0B0020CC010020F00B002041
:10400000D0010020240C0020D4010020580C0020F6
:10401000D8010020DC0100209DF80600702404EA8D
:10402000C0009DF8074040EA64044C779DF8080002
:10403000702404EAC0009DF8094040EA64048C77CB
:104040009DF80A00702404EAC0009DF80B4040EA85
:104050006404CC779DF80C00702404EAC0009DF83D
:104060000D4040EA6404202044549DF80E00702462
:1040700004EAC0009DF80F4040EA640481F8214042
:104080009DF80000C007400E9DF8014004F00104B7
:1040900040EA44109DF8024004F0010440EA041094
:1040A0009DF8034004F0010440EA84009DF80440B8
:1040B00004F0010440EA44009DF8054004F00104C6
:1040C000204381F822009DF80600C007400E9DF8AD
:1040D000074004F0010440EA44109DF8084004F051
:1040E000010440EA04109DF8094004F0010440EA8C
:1040F00084009DF80A4004F0010440EA44009DF861
:104100000B4004F00104204381F823009DF80C00CB
:10411000C007400E9DF80D4004F0010440EA441031
:104120009DF80E4004F0010440EA04109DF80F4091
:1041300004F0010440EA840481F8244001E00020F6
:10414000A8E50120A6E530B58BB004460D460CB9B4
:10415000012000E000200DB9012100E0002108430A
:10416000217909B9012100E00021084302D0002093
:104170000BB030BD01A92846FFF787FD012808D103
:1041800001A92046FFF789FC012800D1F0E70020B3
:10419000EEE70020ECE700BFEFF310800449086071
:1041A00072B670470249086880F3108800BF7047F4
:1041B000C801002038B504466946E06902F0EBFA10
:1041C0000546022D07D1216808689DF8001001F00E
:1041D0002BFF012038BD012D08D1E06A08B1E06A4B
:1041E0008047012184F825100120F3E7012184F89C
:1041F00025100020EEE738B504466946E06902F074
:10420000CAFA0546022D07D1216808689DF80010FA
:1042100001F00AFF012038BD012D08D1E06A08B184
:10422000E06A8047012184F825100120F3E701218D
:1042300084F825100020EEE738B504466946E069A9
:1042400002F0E9FA022834D19DF80000242801DDAB
:10425000242000902168086A002100F0F2FE216805
:10426000086A00F005FFC5B22168086A012100F064
:10427000E8FE002D1DDC226A511C9DF80020E0693B
:1042800002F036FB022811D12168086A002100F0F3
:10429000D8FE2168086A9DF8001000F0E7FE21684A
:1042A000086A012100F0CDFE012038BD012184F80B
:1042B00025100020F9E738B504466946E06902F0A8
:1042C000AAFA022834D19DF80000242801DD242018
:1042D00000902168086A002100F0B3FE2168086A96
:1042E00000F0C6FEC5B22168086A012100F0A9FEEF
:1042F000002D1DDC226A511C9DF80020E06902F0AF
:10430000F7FA022811D12168086A002100F099FE0D
:104310002168086A9DF8001000F0A8FE2168086A6C
:10432000012100F08EFE012038BD012184F8251006
:104330000020F9E701210170002141704FF416516E
:10434000416000220281428182810C22C2810022CE
:10435000028203210175417500218175C17581615A
:10436000C161704770B58EB004460D4604B115B9F1
:1043700000200EB070BD0126F848844203D1F848F1
:10438000F649086021E0F748844204D1F448283017
:10439000F449086019E0F448844204D1F0485030F0
:1043A000F149086011E0F148844204D1EC487830CA
:1043B000EE49086009E0EE48844204D1E848A030A4
:1043C000EB49086001E00020D3E7287820712068DD
:1043D000006A10B12068806910B90021617101E0A4
:1043E00069786171DD48844202D1E249A16019E037
:1043F000DC48844202D1E049A16013E0DA488442FB
:1044000002D1DE49A1600DE0D848844202D1DC49E6
:10441000A16007E0D648844202D1DA49A16001E0F8
:104420000020A6E70021A0680170CC48844202D198
:10443000D549216219E0CB48844202D1D349216297
:1044400013E0C948844202D1D14921620DE0C74836
:10445000844202D1CF49216207E0C548844202D19B
:10446000CD49216201E0002083E7BC4884420FD19E
:10447000CA4AFF21CA4802F0E7F8022800D0002605
:10448000012E02D1C649E16150E00021E1614DE019
:10449000B44884420FD1C34AFF21C34802F0D4F884
:1044A000022800D00026012E02D1BF49E1613DE083
:1044B0000021E1613AE0AC4884420FD1BB4AFF21C0
:1044C000BB4802F0C1F8022800D00026012E02D11C
:1044D000B749E1612AE00021E16127E0A348844275
:1044E0000FD1B44AFF21B44802F0AEF8022800D040
:1044F0000026012E02D1B049E16117E00021E161FF
:1045000014E09B4884420FD1AC4AFF21AC4802F032
:104510009BF8022800D00026012E02D1A849E161B3
:1045200004E00021E16101E0002022E7012184F89C
:104530002510002184F8301084F8311084F82410FC
:10454000A969A162E969E1620DA801F09CF92068FE
:104550008089ADF8340003208DF8360018208DF8DE
:104560003700216888680DA901F004F92068808A65
:10457000ADF8340004208DF83700216808690DA9D2
:1045800001F0F8F86968E160298A2183E989E1820C
:10459000A989A182698961822989218221680868A3
:1045A000291D01F048FC607970B921680122086872
:1045B00040F2255101F0D7FC21680122086840F241
:1045C000266101F0D0FC13E02068806908B1012069
:1045D00000E000202168096A09B1012100E0002102
:1045E000084205D0216801220868C02101F0E0FCE2
:1045F00021680122086840F2244101F0B4FC2068DF
:10460000806908B1012000E000202168096A09B131
:10461000012100E00021084249D06079012846D1FB
:104620002168886900F040FC20680068001D029045
:10463000A068401C039000200490242005900020D6
:104640000690802007900020089009900A904FF46F
:1046500040500B9000200C902168886902A900F05E
:10466000C5FC216801228869022100F0F6FC21685E
:104670008869242100F0FAFC2168086A00F014FC23
:10468000206A401C0390102004902420059021688B
:10469000086A02A900F0AAFC21680122086A022126
:1046A00000F0DBFC2168086A002100F0DFFC2068D4
:1046B00000798DF80400287D8DF80500687D8DF85F
:1046C000060001208DF8070001A800F084FB607946
:1046D000012810D1206890F824008DF80400A87DEE
:1046E0008DF80500E87D8DF8060001208DF80700A3
:1046F00001A800F070FB2068806908B1012000E08B
:1047000000202168096A09B1012100E00021084266
:1047100017D0607901280AD121688869012100F049
:1047200090FC2168086A012100F08BFC09E02168F7
:104730008869002100F085FC2168086A002100F0EA
:1047400080FC21680868012101F001FC21680868EB
:10475000402101F0E4FC01200BE60000441500209C
:104760001800002078150020AC150020E01500206E
:1047700014160020841B0020CE1B0020181C0020D3
:10478000621C0020AC1C0020A91B0020F31B002091
:104790003D1C0020871C0020D11C00204816002052
:1047A00048170020541700205418002060180020DB
:1047B000601900206C1900206C1A0020781A002063
:1047C000781B002010B504460CB9002010BD2168EC
:1047D0000868012101F0BBFB2068806908B1012055
:1047E00000E000202168096A09B1012100E00021F0
:1047F000084206D0607920B921688869012100F05B
:1048000020FC0120E2E710B504460CB9002010BDE1
:1048100021680868012101F09AFB6079012804D120
:1048200021688869012100F00CFC0120EFE710B538
:1048300004460CB9002010BD21680868002101F071
:1048400086FB6079012804D121688869002100F085
:10485000F8FB0120EFE770B505460C4605B10CB931
:10486000002070BD95F82400012865D1FB488542E1
:1048700010D100F070FAFA48007820702278F849D8
:10488000491C601C03F005F8002185F8241000F095
:104890005CFA53E0F348854210D100F05CFAF2482C
:1048A000007820702278F049491C601C02F0F1FF6A
:1048B000002185F8241000F048FA3FE0EB488542DB
:1048C00010D100F048FAEA48007820702278E849D0
:1048D000491C601C02F0DDFF002185F8241000F067
:1048E00034FA2BE0E348854210D100F034FAE24874
:1048F000007820702278E049491C601C02F0C9FF52
:10490000002185F8241000F020FA17E0DB488542EA
:1049100010D100F020FADA48007820702278D849C7
:10492000491C601C02F0B5FF002185F8241000F03E
:104930000CFA03E0002094E7002092E7012090E7C2
:1049400070B504460D460CB9002070BD94F83000D7
:1049500001280ED100F0FFF90120287094F83100F1
:104960006870002184F8301084F8311000F0EDF9FF
:1049700006E000F0F0F900202870687000F0E5F91A
:104980000120E2E770B504460D4604B10DB90020E0
:1049900070BD2A78691CE06901F0B2FE022801D0DE
:1049A0000020F5E7607901280AD194F82500012854
:1049B00010D1002184F825102046FFF73DFC09E0C6
:1049C00094F82500012805D1002184F825102046FF
:1049D000FFF711FC0120DBE770B504460CB900209D
:1049E00070BD2168086840F2255101F08BFB012859
:1049F0007ED1607901287BD09848844215D1216806
:104A0000086801F015FBC1B2A068401C9D4A1278ED
:104A100081542168086840F2255101F080FB9948D3
:104A20000078401C9749087062E08E48844215D196
:104A30002168086801F0FCFAC1B2A068401C924AE3
:104A4000127881542168086840F2255101F067FB13
:104A50008D480078401C8C49087049E083488442A6
:104A600015D12168086801F0E3FAC1B2A068401CC2
:104A7000864A127881542168086840F2255101F075
:104A80004EFB82480078401C8049087030E079482D
:104A9000844215D12168086801F0CAFAC1B2A06841
:104AA000401C7B4A127881542168086840F22551E5
:104AB00001F035FB76480078401C7549087017E016
:104AC0006E48844214D12168086801F0B1FAC1B27D
:104AD000A068401C6F4A127881542168086840F22F
:104AE000255101F01CFB6B480078401C6949087097
:104AF00021680868402101F005FB01280AD160798E
:104B0000012807D021680868402101F008FB2046F1
:104B1000FFF771FB21680868102101F0F3FA012802
:104B200078D1012184F8301084F8241060790128AC
:104B30004ED121688869002100F083FA47488442F9
:104B400008D12168886900F093FAC0F124004D492A
:104B500008702EE04348844208D12168886900F03B
:104B600087FAC0F124004849087022E03F48844297
:104B700008D12168886900F07BFAC0F1240043491C
:104B8000087016E03B48844208D12168886900F02B
:104B90006FFAC0F124003E4908700AE037488442A9
:104BA00007D12168886900F063FAC0F1240039490F
:104BB0000870A068401C21688969C86021688869FC
:104BC000242100F053FA21688869012100F039FAA4
:104BD000224884420DD12B480178204880F83110BA
:104BE00028480078401C1E4908700020254908709C
:104BF00062E01C4884420ED123480178194880F8AD
:104C0000311021480078401C1749087000201E49C7
:104C1000087051E05BE0154884420DD11B480178D3
:104C2000124880F8311019480078401C104908706B
:104C30000020164908703FE00E4884422CD11448E9
:104C400001780C4880F8311011480078401C0A495E
:104C5000087000200E4908702EE000004415002066
:104C6000841B002078150020CE1B0020AC150020EE
:104C7000181C0020E0150020621C002014160020E3
:104C8000AC1C0020E0010020E1010020E201002036
:104C9000E3010020E4010020324884420CD1324874
:104CA0000178304880F831102F480078401C2F4997
:104CB000087000202C490870A06A08B1A06A8047DB
:104CC00020680068058820680068858800BF01208A
:104CD00086E670B504460CB9002070BD2068006AF5
:104CE0002349884202D1202520261CE02068006A42
:104CF0001F492831884203D14FF400552E4612E057
:104D00002068006A1A496431884202D18504860409
:104D100009E02068006A1749884202D1164D2E46E4
:104D200001E00020D9E7284600F0C4F901280AD1A3
:104D3000304600F0B4F92046FFF7BDFA0F48C06ACC
:104D400008B1E06A80470120C7E70D49086880F391
:104D5000108800BF704700BFEFF31080084908605B
:104D600072B6704714160020E4010020AC1C00202D
:104D70001C000240580402400000021044150020AC
:104D8000E801002070470B4880470B4981F30888F1
:104D90000A480047FEE7FEE7FEE7FEE7FEE7FEE71C
:104DA000FEE7FEE7FEE7FEE705480649044A064B34
:104DB00070470000854D000858250020310100088B
:104DC000581D002058250020581D0020314901435E
:104DD000314A1160704770B5002100230F22C4785A
:104DE0000CB32D4C246804F4E064C4F5E064210A9B
:104DF000C1F10403CA40447804FA03F184781440F2
:104E000021430901254C0678A155047804F01F05BB
:104E10000124AC4005786D114FF0E02606EB8505C6
:104E2000C5F8004109E0047804F01F050124AC40F6
:104E30001B4D0678761145F8264070BD194A0A4088
:104E40000243154B1B1F1A60704739B1124A121DDD
:104E500012680243104B1B1D1A6006E00E4A121D19
:104E6000126882430C4B1B1D1A607047042808D13E
:104E70004FF0E021096941F004014FF0E022116197
:104E800007E04FF0E021096921F004014FF0E02232
:104E9000116170470000FA050CED00E000E400E04D
:104EA00080E100E080FFFF1F01684FF6FE721140B5
:104EB00001600021016041608160C1608C498842CD
:104EC00008D18B490839496841F00F01884A083AEE
:104ED00051608AE086491431884208D184490839F2
:104EE000496841F0F001824A083A51607DE080490A
:104EF0002831884208D17E490839496841F47061F7
:104F00007B4A083A516070E079493C31884208D1C7
:104F100077490839496841F47041754A083A516047
:104F200063E073495031884208D1714908394968B2
:104F300041F470216E4A083A516056E06C49643180
:104F4000884208D16A490839496841F47001684AC1
:104F5000083A516049E066497831884208D164498D
:104F60000839496841F07061614A083A51603CE093
:104F70006049884206D1011F096841F00F01021FF4
:104F8000116032E05B491431884208D15949091F48
:104F9000096841F0F001574A121F116025E0554998
:104FA0002831884208D15349091F096841F47061CA
:104FB000504A121F116018E04E493C31884208D116
:104FC0004C49091F096841F470414A4A121F116097
:104FD0000BE048495031884207D14649091F09680A
:104FE00041F47021434A121F1160704710B500222E
:104FF000026847F6F0739A430C6A8B6823430C6986
:1050000023434C6923438C692343CC6923434C6A73
:1050100023438C6A23431A430260CB6843600B68C6
:1050200083604B68C36010BD0021016041608160F6
:10503000C160016141618161C1610162416281625E
:10504000704721B1026842F00102026004E0026888
:105050004FF6FE731A40026070471AB103680B43A3
:10506000036002E003688B43036070474160704750
:105070000146486880B2704701460020002211F0C6
:10508000805F03D01B4B083B1A6802E0184B083BBB
:105090001A680A4201D0012000E00020704710F099
:1050A000805F03D01349091F086002E010490839E6
:1050B0004860704701460020002211F0805F03D055
:1050C0000C4B083B1A6802E0094B083B1A680A427D
:1050D00001D0012000E00020704710F0805F03D075
:1050E0000449091F086002E0014908394860704717
:1050F000080002400804024001460020FE4A1068F1
:1051000000F03800084310607047FB49096821F03F
:105110000801F94A1160114609680143116070479E
:10512000F549096821F01001F34A11601146096838
:10513000014311607047F148EF494860F04848600A
:105140007047EE48EC494860ED4848607047EA48CF
:10515000006940F08000E84908617047E64800694E
:1051600040F08000E449086170470420E249C968C2
:1051700011F0010F01D001200EE0DF49C96811F0E4
:10518000040F01D0022007E0DB49C96811F0100FBD
:1051900001D0032000E00420704700B5024604233C
:1051A000FFF7E3FF034603E0FFF7DFFF0346521E6E
:1051B000012B01D1002AF7D102B90523184600BD01
:1051C00030B5044604254FF43020FFF7E6FF0546CE
:1051D000042D17D1C848006940F00200C649086193
:1051E00008464461006940F0400008614FF43020F7
:1051F000FFF7D3FF0546C048006941F6FD7108403E
:10520000BD490861284630BD10B504244FF4302054
:10521000FFF7C3FF0446042C16D1B748006940F0DD
:105220000400B54908610846006940F04000086183
:105230004FF43020FFF7B1FF0446AF48006941F654
:10524000FB710840AC490861204610BD00B502461C
:105250000423FFF78AFF034603E0FFF786FF0346B8
:10526000521E012B01D1002AF7D102B9052318469D
:1052700000BD10B504244FF43020FFF7E7FF0446CB
:10528000042C16D19C48006940F004009A4908613A
:105290000846006940F0400008614FF43020FFF7F5
:1052A000D5FF04469448006941F6FB7108409249D5
:1052B0000861204610BD00208F49C96911F0020F16
:1052C00001D0012000E00020704730B5A52504245E
:1052D000FFF7F1FF00B100254FF43020FFF75DFF2D
:1052E0000446042C3AD18548834988608448886004
:1052F0000846006940F0200008610846006940F057
:10530000400008614FF43020FFF747FF0446042CAB
:105310001BD17948006941F6DF7108407649086180
:105320000846006940F01000086176480580E002F8
:10533000FFF733FF0446052C10D06F48006941F693
:10534000EF7108406C49086108E0052C06D06A48F6
:10535000006941F6EF71084067490861204630BD99
:1053600078B506460C46042500200090E802FFF7B9
:1053700014FF0546042D24D15F48006940F0010068
:105380005D4908613480E802FFF707FF0546042DF8
:1053900010D1B01C0090200C00990880E802FFF7A3
:1053A000FCFE05465448006941F6FE71084052492A
:1053B000086106E05048006941F6FE7108404E4918
:1053C0000861284678BD70B504460D460426F002F3
:1053D000FFF7E3FE0646042E11D14748006940F06E
:1053E0000100454908612580F002FFF7D6FE064618
:1053F0004148006941F6FE7108403F490861304666
:1054000070BD70B505460E460424E002FFF7C5FEE8
:105410000446042C17D139483749886038488860D9
:105420000846006940F0100008612E80E002FFF796
:10543000B4FE0446052C06D02F48006941F6EF71F2
:1054400008402D490861204670BD2DE9F04304460F
:105450004FF6FF763746B046B1460425E443E6B240
:10546000C4F30727C4F307484FEA1469E802FFF7BB
:1054700094FE0546042D49D120481F4988602048E4
:1054800088600846006940F010000861FF2E06D0D1
:105490001C4808300680E802FFF77FFE0546042D11
:1054A00008D1FF2F06D017480A300780E802FFF71F
:1054B00074FE0546042D0AD1B8F1FF0F07D011483C
:1054C0000C30A0F80080E802FFF767FE0546042DC7
:1054D0000AD1B9F1FF0F07D00A480E30A0F80090AA
:1054E000E802FFF75AFE0546052D0FD00248006975
:1054F00041F6EF71084007E00020024023016745B4
:10550000AB89EFCD00F8FF1F664908612846BDE86A
:10551000F08330B5054604244FF43020FFF73DFEFC
:105520000446042C41D160485E4988605F48886029
:105530000846006940F0200008610846006940F014
:10554000400008614FF43020FFF727FE0446042C8A
:1055500022D15448006941F6DF7108405149086181
:105560000846006940F0100008611DB10020504954
:10557000088002E0A5204E4908804FF43020FFF754
:105580000CFE0446052C10D04648006941F6EF7128
:1055900008404449086108E0052C06D041480069EC
:1055A00041F6DF7108403F490861204630BDF0B543
:1055B00005460E46174604243B483A4988603B4856
:1055C0008860E002FFF7E9FD0446042C19D1354854
:1055D000006940F010003349086147F0F80030439B
:1055E00028433349891C0880E002FFF7D6FD0446B2
:1055F000052C06D02B48006941F6EF710840294977
:1056000008612046F0BD2748C069800870472548DA
:10561000006A704700202349096811F0200F01D06B
:10562000012000E00020704729B11E4A12690243A0
:105630001C4B1A6104E01B4A12698243194B1A6120
:10564000704701460020012908D1164AD26912F09C
:10565000010F01D0012008E0002006E0114AD268C5
:105660000A4201D0012000E0002070470D49C860C7
:10567000704704200B49C96811F0010F01D00120C7
:105680000EE00849C96811F0040F01D0022007E0BC
:105690000449C96811F0100F01D0032000E0042074
:1056A000704700000020024023016745AB89EFCD21
:1056B00000F8FF1F10B50446CA48844208D10121F2
:1056C000042000F027FB0021042000F023FB46E02B
:1056D000C548844208D10121082000F01BFB0021AD
:1056E000082000F017FB3AE0C048844208D10121AD
:1056F000102000F00FFB0021102000F00BFB2EE02B
:10570000BB48844208D10121202000F003FB002186
:10571000202000F0FFFA22E0B648844208D101219F
:10572000402000F0F7FA0021402000F0F3FA16E0E4
:10573000B148844208D10121802000F0EBFA002119
:10574000802000F0E7FA0AE0AC48844207D101214A
:10575000801500F0DFFA0021A01500F0DBFA10BD83
:1057600010B50121084600F0D5FA0021012000F013
:10577000D1FA10BD2DE9F041024600250026002097
:1057800000230024002791F803C00CF00F0591F8C6
:1057900003C01CF0100F03D091F802C04CEA0505BD
:1057A00091F800C0BCF1000F31D0146800202BE04C
:1057B0004FF0010C0CFA00F3B1F800C00CEA03063C
:1057C0009E4220D183004FF00F0C0CFA03F7BC432C
:1057D00005FA03FC4CEA040491F803C0BCF1280F5D
:1057E00006D14FF0010C0CFA00FCC2F814C00AE01C
:1057F00091F803C0BCF1480F05D14FF0010C0CFA31
:1058000000FCC2F810C0401C0828D1D31460B1F8C5
:1058100000C0BCF1FF0F34DD546800202EE000F121
:10582000080C4FF0010808FA0CF3B1F800C00CEABC
:1058300003069E4221D183004FF00F0C0CFA03F7B0
:10584000BC4305FA03FC4CEA040491F803C0BCF124
:10585000280F05D100F1080C08FA0CF8C2F81480E2
:1058600091F803C0BCF1480F07D100F1080C4FF0CC
:10587000010808FA0CF8C2F81080401C0828CED3A2
:105880005460BDE8F0814FF6FF7101800221817004
:105890000421C17070470246002093680B4201D07A
:1058A000012000E0002070470146886880B2704700
:1058B00002460020D3680B4201D0012000E0002006
:1058C00070470146C86880B2704701617047416106
:1058D00070470AB1016100E041617047C1607047E3
:1058E0004FF480320A4382618161826182698269F8
:1058F000704702460020424B18684FF680731840EC
:1059000040EA021008433E4B186070473D49C861A9
:105910007047F0B50A46002300240021002500F05E
:105920000046B6F1004F02D1354EF16901E0344E28
:105930007168C0F3034583B200F44016B6F5401F0A
:1059400008D121F070612E4E766826F070662C4FDB
:105950007E6012E000F48016B6F5801F06D10326A3
:1059600006FA05F4A14341F0706106E0460D3601E8
:1059700003FA06F6B14341F0706122B1460D3601DB
:1059800003FA06F6314300F00046B6F1004F02D1AB
:105990001B4EF16101E01A4E7160F0BD30B500227E
:1059A0008B071C0F0F2303FA04F2154B08338C10DE
:1059B00053F824309343124C08348D1044F82530AA
:1059C00023468C1053F824308C07240F00FA04F47B
:1059D00023430B4C08348D1044F8253030BD0A4960
:1059E0000860704700080140000C014000100140B1
:1059F0000014014000180140001C0140002001403B
:105A00000000014000002042DC002042DD48006828
:105A100040F00100DB49086008464068DA49084068
:105A2000D849486008460068D8490840D549086008
:105A30000846006820F4802008600846406820F48A
:105A4000FE0048604FF41F0088607047CD49096828
:105A500021F48031CB4A11601146096821F480217C
:105A60001160B0F5803F03D0B0F5802F0ED106E075
:105A7000C449096841F48031C24A116007E0C14954
:105A8000096841F4A021BF4A116000E000BF00BFD7
:105A9000704710B501460022002300204A11012A58
:105AA00002D1B84C236806E0022A02D1B54C236A21
:105AB00001E0B44C636A01F01F02012494401C42CF
:105AC00001D0012000E0002010BD38B5002000907A
:105AD0000024002500BF3120FFF7DBFF05460098BA
